{
  "_format": "hh-sol-artifact-1",
  "contractName": "DERC721",
  "sourceName": "contracts/DERC721.sol",
  "abi": [
    {
      "inputs": [
        {
          "internalType": "string",
          "name": "_name",
          "type": "string"
        },
        {
          "internalType": "string",
          "name": "_symbol",
          "type": "string"
        }
      ],
      "stateMutability": "nonpayable",
      "type": "constructor"
    },
    {
      "anonymous": false,
      "inputs": [
        {
          "indexed": true,
          "internalType": "address",
          "name": "owner",
          "type": "address"
        },
        {
          "indexed": true,
          "internalType": "address",
          "name": "approved",
          "type": "address"
        },
        {
          "indexed": true,
          "internalType": "uint256",
          "name": "tokenId",
          "type": "uint256"
        }
      ],
      "name": "Approval",
      "type": "event"
    },
    {
      "anonymous": false,
      "inputs": [
        {
          "indexed": true,
          "internalType": "address",
          "name": "owner",
          "type": "address"
        },
        {
          "indexed": true,
          "internalType": "address",
          "name": "operator",
          "type": "address"
        },
        {
          "indexed": false,
          "internalType": "bool",
          "name": "approved",
          "type": "bool"
        }
      ],
      "name": "ApprovalForAll",
      "type": "event"
    },
    {
      "anonymous": false,
      "inputs": [
        {
          "indexed": true,
          "internalType": "bytes32",
          "name": "role",
          "type": "bytes32"
        },
        {
          "indexed": true,
          "internalType": "bytes32",
          "name": "previousAdminRole",
          "type": "bytes32"
        },
        {
          "indexed": true,
          "internalType": "bytes32",
          "name": "newAdminRole",
          "type": "bytes32"
        }
      ],
      "name": "RoleAdminChanged",
      "type": "event"
    },
    {
      "anonymous": false,
      "inputs": [
        {
          "indexed": true,
          "internalType": "bytes32",
          "name": "role",
          "type": "bytes32"
        },
        {
          "indexed": true,
          "internalType": "address",
          "name": "account",
          "type": "address"
        },
        {
          "indexed": true,
          "internalType": "address",
          "name": "sender",
          "type": "address"
        }
      ],
      "name": "RoleGranted",
      "type": "event"
    },
    {
      "anonymous": false,
      "inputs": [
        {
          "indexed": true,
          "internalType": "bytes32",
          "name": "role",
          "type": "bytes32"
        },
        {
          "indexed": true,
          "internalType": "address",
          "name": "account",
          "type": "address"
        },
        {
          "indexed": true,
          "internalType": "address",
          "name": "sender",
          "type": "address"
        }
      ],
      "name": "RoleRevoked",
      "type": "event"
    },
    {
      "anonymous": false,
      "inputs": [
        {
          "indexed": true,
          "internalType": "address",
          "name": "from",
          "type": "address"
        },
        {
          "indexed": true,
          "internalType": "address",
          "name": "to",
          "type": "address"
        },
        {
          "indexed": true,
          "internalType": "uint256",
          "name": "tokenId",
          "type": "uint256"
        }
      ],
      "name": "Transfer",
      "type": "event"
    },
    {
      "inputs": [],
      "name": "DEFAULT_ADMIN_ROLE",
      "outputs": [
        {
          "internalType": "bytes32",
          "name": "",
          "type": "bytes32"
        }
      ],
      "stateMutability": "view",
      "type": "function"
    },
    {
      "inputs": [],
      "name": "MINTER_ROLE",
      "outputs": [
        {
          "internalType": "bytes32",
          "name": "",
          "type": "bytes32"
        }
      ],
      "stateMutability": "view",
      "type": "function"
    },
    {
      "inputs": [
        {
          "internalType": "address",
          "name": "to",
          "type": "address"
        },
        {
          "internalType": "uint256",
          "name": "tokenId",
          "type": "uint256"
        }
      ],
      "name": "approve",
      "outputs": [],
      "stateMutability": "nonpayable",
      "type": "function"
    },
    {
      "inputs": [
        {
          "internalType": "address",
          "name": "owner",
          "type": "address"
        }
      ],
      "name": "balanceOf",
      "outputs": [
        {
          "internalType": "uint256",
          "name": "",
          "type": "uint256"
        }
      ],
      "stateMutability": "view",
      "type": "function"
    },
    {
      "inputs": [
        {
          "internalType": "uint256",
          "name": "tokenId",
          "type": "uint256"
        }
      ],
      "name": "getApproved",
      "outputs": [
        {
          "internalType": "address",
          "name": "",
          "type": "address"
        }
      ],
      "stateMutability": "view",
      "type": "function"
    },
    {
      "inputs": [
        {
          "internalType": "bytes32",
          "name": "role",
          "type": "bytes32"
        }
      ],
      "name": "getRoleAdmin",
      "outputs": [
        {
          "internalType": "bytes32",
          "name": "",
          "type": "bytes32"
        }
      ],
      "stateMutability": "view",
      "type": "function"
    },
    {
      "inputs": [
        {
          "internalType": "bytes32",
          "name": "role",
          "type": "bytes32"
        },
        {
          "internalType": "address",
          "name": "account",
          "type": "address"
        }
      ],
      "name": "grantRole",
      "outputs": [],
      "stateMutability": "nonpayable",
      "type": "function"
    },
    {
      "inputs": [
        {
          "internalType": "bytes32",
          "name": "role",
          "type": "bytes32"
        },
        {
          "internalType": "address",
          "name": "account",
          "type": "address"
        }
      ],
      "name": "hasRole",
      "outputs": [
        {
          "internalType": "bool",
          "name": "",
          "type": "bool"
        }
      ],
      "stateMutability": "view",
      "type": "function"
    },
    {
      "inputs": [
        {
          "internalType": "address",
          "name": "owner",
          "type": "address"
        },
        {
          "internalType": "address",
          "name": "operator",
          "type": "address"
        }
      ],
      "name": "isApprovedForAll",
      "outputs": [
        {
          "internalType": "bool",
          "name": "",
          "type": "bool"
        }
      ],
      "stateMutability": "view",
      "type": "function"
    },
    {
      "inputs": [],
      "name": "name",
      "outputs": [
        {
          "internalType": "string",
          "name": "",
          "type": "string"
        }
      ],
      "stateMutability": "view",
      "type": "function"
    },
    {
      "inputs": [
        {
          "internalType": "uint256",
          "name": "tokenId",
          "type": "uint256"
        }
      ],
      "name": "ownerOf",
      "outputs": [
        {
          "internalType": "address",
          "name": "",
          "type": "address"
        }
      ],
      "stateMutability": "view",
      "type": "function"
    },
    {
      "inputs": [
        {
          "internalType": "bytes32",
          "name": "role",
          "type": "bytes32"
        },
        {
          "internalType": "address",
          "name": "account",
          "type": "address"
        }
      ],
      "name": "renounceRole",
      "outputs": [],
      "stateMutability": "nonpayable",
      "type": "function"
    },
    {
      "inputs": [
        {
          "internalType": "bytes32",
          "name": "role",
          "type": "bytes32"
        },
        {
          "internalType": "address",
          "name": "account",
          "type": "address"
        }
      ],
      "name": "revokeRole",
      "outputs": [],
      "stateMutability": "nonpayable",
      "type": "function"
    },
    {
      "inputs": [
        {
          "internalType": "address",
          "name": "to",
          "type": "address"
        }
      ],
      "name": "safeMint",
      "outputs": [],
      "stateMutability": "nonpayable",
      "type": "function"
    },
    {
      "inputs": [
        {
          "internalType": "address",
          "name": "from",
          "type": "address"
        },
        {
          "internalType": "address",
          "name": "to",
          "type": "address"
        },
        {
          "internalType": "uint256",
          "name": "tokenId",
          "type": "uint256"
        }
      ],
      "name": "safeTransferFrom",
      "outputs": [],
      "stateMutability": "nonpayable",
      "type": "function"
    },
    {
      "inputs": [
        {
          "internalType": "address",
          "name": "from",
          "type": "address"
        },
        {
          "internalType": "address",
          "name": "to",
          "type": "address"
        },
        {
          "internalType": "uint256",
          "name": "tokenId",
          "type": "uint256"
        },
        {
          "internalType": "bytes",
          "name": "_data",
          "type": "bytes"
        }
      ],
      "name": "safeTransferFrom",
      "outputs": [],
      "stateMutability": "nonpayable",
      "type": "function"
    },
    {
      "inputs": [
        {
          "internalType": "address",
          "name": "operator",
          "type": "address"
        },
        {
          "internalType": "bool",
          "name": "approved",
          "type": "bool"
        }
      ],
      "name": "setApprovalForAll",
      "outputs": [],
      "stateMutability": "nonpayable",
      "type": "function"
    },
    {
      "inputs": [
        {
          "internalType": "bytes4",
          "name": "interfaceId",
          "type": "bytes4"
        }
      ],
      "name": "supportsInterface",
      "outputs": [
        {
          "internalType": "bool",
          "name": "",
          "type": "bool"
        }
      ],
      "stateMutability": "view",
      "type": "function"
    },
    {
      "inputs": [],
      "name": "symbol",
      "outputs": [
        {
          "internalType": "string",
          "name": "",
          "type": "string"
        }
      ],
      "stateMutability": "view",
      "type": "function"
    },
    {
      "inputs": [
        {
          "internalType": "uint256",
          "name": "tokenId",
          "type": "uint256"
        }
      ],
      "name": "tokenURI",
      "outputs": [
        {
          "internalType": "string",
          "name": "",
          "type": "string"
        }
      ],
      "stateMutability": "view",
      "type": "function"
    },
    {
      "inputs": [
        {
          "internalType": "address",
          "name": "from",
          "type": "address"
        },
        {
          "internalType": "address",
          "name": "to",
          "type": "address"
        },
        {
          "internalType": "uint256",
          "name": "tokenId",
          "type": "uint256"
        }
      ],
      "name": "transferFrom",
      "outputs": [],
      "stateMutability": "nonpayable",
      "type": "function"
    }
  ],
  "bytecode": "0x60806040523480156200001157600080fd5b506040516200389f3803806200389f833981810160405281019062000037919062000343565b818181600090805190602001906200005192919062000221565b5080600190805190602001906200006a92919062000221565b505050620000826000801b33620000bc60201b60201c565b620000b47f9f2df0fed2c77648de5860a4cc508cd0818c85b8b8a1ab4ceeef8d981c8956a633620000bc60201b60201c565b505062000526565b620000ce8282620001ae60201b60201c565b620001aa5760016006600084815260200190815260200160002060000160008373ffffffffffffffffffffffffffffffffffffffff1673ffffffffffffffffffffffffffffffffffffffff16815260200190815260200160002060006101000a81548160ff0219169083151502179055506200014f6200021960201b60201c565b73ffffffffffffffffffffffffffffffffffffffff168173ffffffffffffffffffffffffffffffffffffffff16837f2f8788117e7eff1d82e926ec794901d17c78024a50270940304540a733656f0d60405160405180910390a45b5050565b60006006600084815260200190815260200160002060000160008373ffffffffffffffffffffffffffffffffffffffff1673ffffffffffffffffffffffffffffffffffffffff16815260200190815260200160002060009054906101000a900460ff16905092915050565b600033905090565b8280546200022f906200044b565b90600052602060002090601f0160209004810192826200025357600085556200029f565b82601f106200026e57805160ff19168380011785556200029f565b828001600101855582156200029f579182015b828111156200029e57825182559160200191906001019062000281565b5b509050620002ae9190620002b2565b5090565b5b80821115620002cd576000816000905550600101620002b3565b5090565b6000620002e8620002e284620003df565b620003b6565b9050828152602081018484840111156200030157600080fd5b6200030e84828562000415565b509392505050565b600082601f8301126200032857600080fd5b81516200033a848260208601620002d1565b91505092915050565b600080604083850312156200035757600080fd5b600083015167ffffffffffffffff8111156200037257600080fd5b620003808582860162000316565b925050602083015167ffffffffffffffff8111156200039e57600080fd5b620003ac8582860162000316565b9150509250929050565b6000620003c2620003d5565b9050620003d0828262000481565b919050565b6000604051905090565b600067ffffffffffffffff821115620003fd57620003fc620004e6565b5b620004088262000515565b9050602081019050919050565b60005b838110156200043557808201518184015260208101905062000418565b8381111562000445576000848401525b50505050565b600060028204905060018216806200046457607f821691505b602082108114156200047b576200047a620004b7565b5b50919050565b6200048c8262000515565b810181811067ffffffffffffffff82111715620004ae57620004ad620004e6565b5b80604052505050565b7f4e487b7100000000000000000000000000000000000000000000000000000000600052602260045260246000fd5b7f4e487b7100000000000000000000000000000000000000000000000000000000600052604160045260246000fd5b6000601f19601f8301169050919050565b61336980620005366000396000f3fe608060405234801561001057600080fd5b50600436106101375760003560e01c80636352211e116100b8578063a22cb4651161007c578063a22cb4651461035e578063b88d4fde1461037a578063c87b56dd14610396578063d5391393146103c6578063d547741f146103e4578063e985e9c51461040057610137565b80636352211e1461029257806370a08231146102c257806391d14854146102f257806395d89b4114610322578063a217fddf1461034057610137565b8063248a9ca3116100ff578063248a9ca3146101f25780632f2ff15d1461022257806336568abe1461023e57806340d097c31461025a57806342842e0e1461027657610137565b806301ffc9a71461013c57806306fdde031461016c578063081812fc1461018a578063095ea7b3146101ba57806323b872dd146101d6575b600080fd5b610156600480360381019061015191906122cc565b610430565b6040516101639190612761565b60405180910390f35b610174610442565b6040516101819190612797565b60405180910390f35b6101a4600480360381019061019f919061231e565b6104d4565b6040516101b191906126fa565b60405180910390f35b6101d460048036038101906101cf919061222b565b610559565b005b6101f060048036038101906101eb9190612125565b610671565b005b61020c60048036038101906102079190612267565b6106d1565b604051610219919061277c565b60405180910390f35b61023c60048036038101906102379190612290565b6106f1565b005b61025860048036038101906102539190612290565b610712565b005b610274600480360381019061026f91906120c0565b610795565b005b610290600480360381019061028b9190612125565b6107e6565b005b6102ac60048036038101906102a7919061231e565b610806565b6040516102b991906126fa565b60405180910390f35b6102dc60048036038101906102d791906120c0565b6108b8565b6040516102e991906129b9565b60405180910390f35b61030c60048036038101906103079190612290565b610970565b6040516103199190612761565b60405180910390f35b61032a6109db565b6040516103379190612797565b60405180910390f35b610348610a6d565b604051610355919061277c565b60405180910390f35b610378600480360381019061037391906121ef565b610a74565b005b610394600480360381019061038f9190612174565b610a8a565b005b6103b060048036038101906103ab919061231e565b610aec565b6040516103bd9190612797565b60405180910390f35b6103ce610b93565b6040516103db919061277c565b60405180910390f35b6103fe60048036038101906103f99190612290565b610bb7565b005b61041a600480360381019061041591906120e9565b610bd8565b6040516104279190612761565b60405180910390f35b600061043b82610c6c565b9050919050565b60606000805461045190612c6c565b80601f016020809104026020016040519081016040528092919081815260200182805461047d90612c6c565b80156104ca5780601f1061049f576101008083540402835291602001916104ca565b820191906000526020600020905b8154815290600101906020018083116104ad57829003601f168201915b5050505050905090565b60006104df82610ce6565b61051e576040517f08c379a000000000000000000000000000000000000000000000000000000000815260040161051590612919565b60405180910390fd5b6004600083815260200190815260200160002060009054906101000a900473ffffffffffffffffffffffffffffffffffffffff169050919050565b600061056482610806565b90508073ffffffffffffffffffffffffffffffffffffffff168373ffffffffffffffffffffffffffffffffffffffff1614156105d5576040517f08c379a00000000000000000000000000000000000000000000000000000000081526004016105cc90612959565b60405180910390fd5b8073ffffffffffffffffffffffffffffffffffffffff166105f4610d52565b73ffffffffffffffffffffffffffffffffffffffff16148061062357506106228161061d610d52565b610bd8565b5b610662576040517f08c379a000000000000000000000000000000000000000000000000000000000815260040161065990612899565b60405180910390fd5b61066c8383610d5a565b505050565b61068261067c610d52565b82610e13565b6106c1576040517f08c379a00000000000000000000000000000000000000000000000000000000081526004016106b890612979565b60405180910390fd5b6106cc838383610ef1565b505050565b600060066000838152602001908152602001600020600101549050919050565b6106fa826106d1565b61070381611158565b61070d838361116c565b505050565b61071a610d52565b73ffffffffffffffffffffffffffffffffffffffff168173ffffffffffffffffffffffffffffffffffffffff1614610787576040517f08c379a000000000000000000000000000000000000000000000000000000000815260040161077e90612999565b60405180910390fd5b610791828261124d565b5050565b7f9f2df0fed2c77648de5860a4cc508cd0818c85b8b8a1ab4ceeef8d981c8956a66107bf81611158565b60006107cb600761132f565b90506107d7600761133d565b6107e18382611353565b505050565b61080183838360405180602001604052806000815250610a8a565b505050565b6000806002600084815260200190815260200160002060009054906101000a900473ffffffffffffffffffffffffffffffffffffffff169050600073ffffffffffffffffffffffffffffffffffffffff168173ffffffffffffffffffffffffffffffffffffffff1614156108af576040517f08c379a00000000000000000000000000000000000000000000000000000000081526004016108a6906128d9565b60405180910390fd5b80915050919050565b60008073ffffffffffffffffffffffffffffffffffffffff168273ffffffffffffffffffffffffffffffffffffffff161415610929576040517f08c379a0000000000000000000000000000000000000000000000000000000008152600401610920906128b9565b60405180910390fd5b600360008373ffffffffffffffffffffffffffffffffffffffff1673ffffffffffffffffffffffffffffffffffffffff168152602001908152602001600020549050919050565b60006006600084815260200190815260200160002060000160008373ffffffffffffffffffffffffffffffffffffffff1673ffffffffffffffffffffffffffffffffffffffff16815260200190815260200160002060009054906101000a900460ff16905092915050565b6060600180546109ea90612c6c565b80601f0160208091040260200160405190810160405280929190818152602001828054610a1690612c6c565b8015610a635780601f10610a3857610100808354040283529160200191610a63565b820191906000526020600020905b815481529060010190602001808311610a4657829003601f168201915b5050505050905090565b6000801b81565b610a86610a7f610d52565b8383611371565b5050565b610a9b610a95610d52565b83610e13565b610ada576040517f08c379a0000000000000000000000000000000000000000000000000000000008152600401610ad190612979565b60405180910390fd5b610ae6848484846114de565b50505050565b6060610af782610ce6565b610b36576040517f08c379a0000000000000000000000000000000000000000000000000000000008152600401610b2d90612939565b60405180910390fd5b6000610b4061153a565b90506000815111610b605760405180602001604052806000815250610b8b565b80610b6a84611551565b604051602001610b7b92919061269c565b6040516020818303038152906040525b915050919050565b7f9f2df0fed2c77648de5860a4cc508cd0818c85b8b8a1ab4ceeef8d981c8956a681565b610bc0826106d1565b610bc981611158565b610bd3838361124d565b505050565b6000600560008473ffffffffffffffffffffffffffffffffffffffff1673ffffffffffffffffffffffffffffffffffffffff16815260200190815260200160002060008373ffffffffffffffffffffffffffffffffffffffff1673ffffffffffffffffffffffffffffffffffffffff16815260200190815260200160002060009054906101000a900460ff16905092915050565b60007f7965db0b000000000000000000000000000000000000000000000000000000007bffffffffffffffffffffffffffffffffffffffffffffffffffffffff1916827bffffffffffffffffffffffffffffffffffffffffffffffffffffffff19161480610cdf5750610cde826116fe565b5b9050919050565b60008073ffffffffffffffffffffffffffffffffffffffff166002600084815260200190815260200160002060009054906101000a900473ffffffffffffffffffffffffffffffffffffffff1673ffffffffffffffffffffffffffffffffffffffff1614159050919050565b600033905090565b816004600083815260200190815260200160002060006101000a81548173ffffffffffffffffffffffffffffffffffffffff021916908373ffffffffffffffffffffffffffffffffffffffff160217905550808273ffffffffffffffffffffffffffffffffffffffff16610dcd83610806565b73ffffffffffffffffffffffffffffffffffffffff167f8c5be1e5ebec7d5bd14f71427d1e84f3dd0314c0f7b2291e5b200ac8c7c3b92560405160405180910390a45050565b6000610e1e82610ce6565b610e5d576040517f08c379a0000000000000000000000000000000000000000000000000000000008152600401610e5490612879565b60405180910390fd5b6000610e6883610806565b90508073ffffffffffffffffffffffffffffffffffffffff168473ffffffffffffffffffffffffffffffffffffffff161480610eaa5750610ea98185610bd8565b5b80610ee857508373ffffffffffffffffffffffffffffffffffffffff16610ed0846104d4565b73ffffffffffffffffffffffffffffffffffffffff16145b91505092915050565b8273ffffffffffffffffffffffffffffffffffffffff16610f1182610806565b73ffffffffffffffffffffffffffffffffffffffff1614610f67576040517f08c379a0000000000000000000000000000000000000000000000000000000008152600401610f5e906127f9565b60405180910390fd5b600073ffffffffffffffffffffffffffffffffffffffff168273ffffffffffffffffffffffffffffffffffffffff161415610fd7576040517f08c379a0000000000000000000000000000000000000000000000000000000008152600401610fce90612839565b60405180910390fd5b610fe28383836117e0565b610fed600082610d5a565b6001600360008573ffffffffffffffffffffffffffffffffffffffff1673ffffffffffffffffffffffffffffffffffffffff168152602001908152602001600020600082825461103d9190612b4e565b925050819055506001600360008473ffffffffffffffffffffffffffffffffffffffff1673ffffffffffffffffffffffffffffffffffffffff16815260200190815260200160002060008282546110949190612a6d565b92505081905550816002600083815260200190815260200160002060006101000a81548173ffffffffffffffffffffffffffffffffffffffff021916908373ffffffffffffffffffffffffffffffffffffffff160217905550808273ffffffffffffffffffffffffffffffffffffffff168473ffffffffffffffffffffffffffffffffffffffff167fddf252ad1be2c89b69c2b068fc378daa952ba7f163c4a11628f55a4df523b3ef60405160405180910390a46111538383836117e5565b505050565b61116981611164610d52565b6117ea565b50565b6111768282610970565b6112495760016006600084815260200190815260200160002060000160008373ffffffffffffffffffffffffffffffffffffffff1673ffffffffffffffffffffffffffffffffffffffff16815260200190815260200160002060006101000a81548160ff0219169083151502179055506111ee610d52565b73ffffffffffffffffffffffffffffffffffffffff168173ffffffffffffffffffffffffffffffffffffffff16837f2f8788117e7eff1d82e926ec794901d17c78024a50270940304540a733656f0d60405160405180910390a45b5050565b6112578282610970565b1561132b5760006006600084815260200190815260200160002060000160008373ffffffffffffffffffffffffffffffffffffffff1673ffffffffffffffffffffffffffffffffffffffff16815260200190815260200160002060006101000a81548160ff0219169083151502179055506112d0610d52565b73ffffffffffffffffffffffffffffffffffffffff168173ffffffffffffffffffffffffffffffffffffffff16837ff6391f5c32d9c69d2a47ea670b442974b53935d1edc7fd64eb21e047a839171b60405160405180910390a45b5050565b600081600001549050919050565b6001816000016000828254019250508190555050565b61136d828260405180602001604052806000815250611887565b5050565b8173ffffffffffffffffffffffffffffffffffffffff168373ffffffffffffffffffffffffffffffffffffffff1614156113e0576040517f08c379a00000000000000000000000000000000000000000000000000000000081526004016113d790612859565b60405180910390fd5b80600560008573ffffffffffffffffffffffffffffffffffffffff1673ffffffffffffffffffffffffffffffffffffffff16815260200190815260200160002060008473ffffffffffffffffffffffffffffffffffffffff1673ffffffffffffffffffffffffffffffffffffffff16815260200190815260200160002060006101000a81548160ff0219169083151502179055508173ffffffffffffffffffffffffffffffffffffffff168373ffffffffffffffffffffffffffffffffffffffff167f17307eab39ab6107e8899845ad3d59bd9653f200f220920489ca2b5937696c31836040516114d19190612761565b60405180910390a3505050565b6114e9848484610ef1565b6114f5848484846118e2565b611534576040517f08c379a000000000000000000000000000000000000000000000000000000000815260040161152b906127d9565b60405180910390fd5b50505050565b606060405180602001604052806000815250905090565b60606000821415611599576040518060400160405280600181526020017f300000000000000000000000000000000000000000000000000000000000000081525090506116f9565b600082905060005b600082146115cb5780806115b490612ccf565b915050600a826115c49190612ac3565b91506115a1565b60008167ffffffffffffffff81111561160d577f4e487b7100000000000000000000000000000000000000000000000000000000600052604160045260246000fd5b6040519080825280601f01601f19166020018201604052801561163f5781602001600182028036833780820191505090505b5090505b600085146116f2576001826116589190612b4e565b9150600a856116679190612d18565b60306116739190612a6d565b60f81b8183815181106116af577f4e487b7100000000000000000000000000000000000000000000000000000000600052603260045260246000fd5b60200101907effffffffffffffffffffffffffffffffffffffffffffffffffffffffffffff1916908160001a905350600a856116eb9190612ac3565b9450611643565b8093505050505b919050565b60007f80ac58cd000000000000000000000000000000000000000000000000000000007bffffffffffffffffffffffffffffffffffffffffffffffffffffffff1916827bffffffffffffffffffffffffffffffffffffffffffffffffffffffff191614806117c957507f5b5e139f000000000000000000000000000000000000000000000000000000007bffffffffffffffffffffffffffffffffffffffffffffffffffffffff1916827bffffffffffffffffffffffffffffffffffffffffffffffffffffffff1916145b806117d957506117d882611a79565b5b9050919050565b505050565b505050565b6117f48282610970565b611883576118198173ffffffffffffffffffffffffffffffffffffffff166014611ae3565b6118278360001c6020611ae3565b6040516020016118389291906126c0565b6040516020818303038152906040526040517f08c379a000000000000000000000000000000000000000000000000000000000815260040161187a9190612797565b60405180910390fd5b5050565b6118918383611ddd565b61189e60008484846118e2565b6118dd576040517f08c379a00000000000000000000000000000000000000000000000000000000081526004016118d4906127d9565b60405180910390fd5b505050565b60006119038473ffffffffffffffffffffffffffffffffffffffff16611fb7565b15611a6c578373ffffffffffffffffffffffffffffffffffffffff1663150b7a0261192c610d52565b8786866040518563ffffffff1660e01b815260040161194e9493929190612715565b602060405180830381600087803b15801561196857600080fd5b505af192505050801561199957506040513d601f19601f8201168201806040525081019061199691906122f5565b60015b611a1c573d80600081146119c9576040519150601f19603f3d011682016040523d82523d6000602084013e6119ce565b606091505b50600081511415611a14576040517f08c379a0000000000000000000000000000000000000000000000000000000008152600401611a0b906127d9565b60405180910390fd5b805181602001fd5b63150b7a0260e01b7bffffffffffffffffffffffffffffffffffffffffffffffffffffffff1916817bffffffffffffffffffffffffffffffffffffffffffffffffffffffff191614915050611a71565b600190505b949350505050565b60007f01ffc9a7000000000000000000000000000000000000000000000000000000007bffffffffffffffffffffffffffffffffffffffffffffffffffffffff1916827bffffffffffffffffffffffffffffffffffffffffffffffffffffffff1916149050919050565b606060006002836002611af69190612af4565b611b009190612a6d565b67ffffffffffffffff811115611b3f577f4e487b7100000000000000000000000000000000000000000000000000000000600052604160045260246000fd5b6040519080825280601f01601f191660200182016040528015611b715781602001600182028036833780820191505090505b5090507f300000000000000000000000000000000000000000000000000000000000000081600081518110611bcf577f4e487b7100000000000000000000000000000000000000000000000000000000600052603260045260246000fd5b60200101907effffffffffffffffffffffffffffffffffffffffffffffffffffffffffffff1916908160001a9053507f780000000000000000000000000000000000000000000000000000000000000081600181518110611c59577f4e487b7100000000000000000000000000000000000000000000000000000000600052603260045260246000fd5b60200101907effffffffffffffffffffffffffffffffffffffffffffffffffffffffffffff1916908160001a90535060006001846002611c999190612af4565b611ca39190612a6d565b90505b6001811115611d8f577f3031323334353637383961626364656600000000000000000000000000000000600f861660108110611d0b577f4e487b7100000000000000000000000000000000000000000000000000000000600052603260045260246000fd5b1a60f81b828281518110611d48577f4e487b7100000000000000000000000000000000000000000000000000000000600052603260045260246000fd5b60200101907effffffffffffffffffffffffffffffffffffffffffffffffffffffffffffff1916908160001a905350600485901c945080611d8890612c42565b9050611ca6565b5060008414611dd3576040517f08c379a0000000000000000000000000000000000000000000000000000000008152600401611dca906127b9565b60405180910390fd5b8091505092915050565b600073ffffffffffffffffffffffffffffffffffffffff168273ffffffffffffffffffffffffffffffffffffffff161415611e4d576040517f08c379a0000000000000000000000000000000000000000000000000000000008152600401611e44906128f9565b60405180910390fd5b611e5681610ce6565b15611e96576040517f08c379a0000000000000000000000000000000000000000000000000000000008152600401611e8d90612819565b60405180910390fd5b611ea2600083836117e0565b6001600360008473ffffffffffffffffffffffffffffffffffffffff1673ffffffffffffffffffffffffffffffffffffffff1681526020019081526020016000206000828254611ef29190612a6d565b92505081905550816002600083815260200190815260200160002060006101000a81548173ffffffffffffffffffffffffffffffffffffffff021916908373ffffffffffffffffffffffffffffffffffffffff160217905550808273ffffffffffffffffffffffffffffffffffffffff16600073ffffffffffffffffffffffffffffffffffffffff167fddf252ad1be2c89b69c2b068fc378daa952ba7f163c4a11628f55a4df523b3ef60405160405180910390a4611fb3600083836117e5565b5050565b6000808273ffffffffffffffffffffffffffffffffffffffff163b119050919050565b6000611fed611fe8846129f9565b6129d4565b90508281526020810184848401111561200557600080fd5b612010848285612c00565b509392505050565b600081359050612027816132c0565b92915050565b60008135905061203c816132d7565b92915050565b600081359050612051816132ee565b92915050565b60008135905061206681613305565b92915050565b60008151905061207b81613305565b92915050565b600082601f83011261209257600080fd5b81356120a2848260208601611fda565b91505092915050565b6000813590506120ba8161331c565b92915050565b6000602082840312156120d257600080fd5b60006120e084828501612018565b91505092915050565b600080604083850312156120fc57600080fd5b600061210a85828601612018565b925050602061211b85828601612018565b9150509250929050565b60008060006060848603121561213a57600080fd5b600061214886828701612018565b935050602061215986828701612018565b925050604061216a868287016120ab565b9150509250925092565b6000806000806080858703121561218a57600080fd5b600061219887828801612018565b94505060206121a987828801612018565b93505060406121ba878288016120ab565b925050606085013567ffffffffffffffff8111156121d757600080fd5b6121e387828801612081565b91505092959194509250565b6000806040838503121561220257600080fd5b600061221085828601612018565b92505060206122218582860161202d565b9150509250929050565b6000806040838503121561223e57600080fd5b600061224c85828601612018565b925050602061225d858286016120ab565b9150509250929050565b60006020828403121561227957600080fd5b600061228784828501612042565b91505092915050565b600080604083850312156122a357600080fd5b60006122b185828601612042565b92505060206122c285828601612018565b9150509250929050565b6000602082840312156122de57600080fd5b60006122ec84828501612057565b91505092915050565b60006020828403121561230757600080fd5b60006123158482850161206c565b91505092915050565b60006020828403121561233057600080fd5b600061233e848285016120ab565b91505092915050565b61235081612b82565b82525050565b61235f81612b94565b82525050565b61236e81612ba0565b82525050565b600061237f82612a2a565b6123898185612a40565b9350612399818560208601612c0f565b6123a281612e05565b840191505092915050565b60006123b882612a35565b6123c28185612a51565b93506123d2818560208601612c0f565b6123db81612e05565b840191505092915050565b60006123f182612a35565b6123fb8185612a62565b935061240b818560208601612c0f565b80840191505092915050565b6000612424602083612a51565b915061242f82612e16565b602082019050919050565b6000612447603283612a51565b915061245282612e3f565b604082019050919050565b600061246a602583612a51565b915061247582612e8e565b604082019050919050565b600061248d601c83612a51565b915061249882612edd565b602082019050919050565b60006124b0602483612a51565b91506124bb82612f06565b604082019050919050565b60006124d3601983612a51565b91506124de82612f55565b602082019050919050565b60006124f6602c83612a51565b915061250182612f7e565b604082019050919050565b6000612519603883612a51565b915061252482612fcd565b604082019050919050565b600061253c602a83612a51565b91506125478261301c565b604082019050919050565b600061255f602983612a51565b915061256a8261306b565b604082019050919050565b6000612582602083612a51565b915061258d826130ba565b602082019050919050565b60006125a5602c83612a51565b91506125b0826130e3565b604082019050919050565b60006125c8602f83612a51565b91506125d382613132565b604082019050919050565b60006125eb602183612a51565b91506125f682613181565b604082019050919050565b600061260e603183612a51565b9150612619826131d0565b604082019050919050565b6000612631601783612a62565b915061263c8261321f565b601782019050919050565b6000612654601183612a62565b915061265f82613248565b601182019050919050565b6000612677602f83612a51565b915061268282613271565b604082019050919050565b61269681612bf6565b82525050565b60006126a882856123e6565b91506126b482846123e6565b91508190509392505050565b60006126cb82612624565b91506126d782856123e6565b91506126e282612647565b91506126ee82846123e6565b91508190509392505050565b600060208201905061270f6000830184612347565b92915050565b600060808201905061272a6000830187612347565b6127376020830186612347565b612744604083018561268d565b81810360608301526127568184612374565b905095945050505050565b60006020820190506127766000830184612356565b92915050565b60006020820190506127916000830184612365565b92915050565b600060208201905081810360008301526127b181846123ad565b905092915050565b600060208201905081810360008301526127d281612417565b9050919050565b600060208201905081810360008301526127f28161243a565b9050919050565b600060208201905081810360008301526128128161245d565b9050919050565b6000602082019050818103600083015261283281612480565b9050919050565b60006020820190508181036000830152612852816124a3565b9050919050565b60006020820190508181036000830152612872816124c6565b9050919050565b60006020820190508181036000830152612892816124e9565b9050919050565b600060208201905081810360008301526128b28161250c565b9050919050565b600060208201905081810360008301526128d28161252f565b9050919050565b600060208201905081810360008301526128f281612552565b9050919050565b6000602082019050818103600083015261291281612575565b9050919050565b6000602082019050818103600083015261293281612598565b9050919050565b60006020820190508181036000830152612952816125bb565b9050919050565b60006020820190508181036000830152612972816125de565b9050919050565b6000602082019050818103600083015261299281612601565b9050919050565b600060208201905081810360008301526129b28161266a565b9050919050565b60006020820190506129ce600083018461268d565b92915050565b60006129de6129ef565b90506129ea8282612c9e565b919050565b6000604051905090565b600067ffffffffffffffff821115612a1457612a13612dd6565b5b612a1d82612e05565b9050602081019050919050565b600081519050919050565b600081519050919050565b600082825260208201905092915050565b600082825260208201905092915050565b600081905092915050565b6000612a7882612bf6565b9150612a8383612bf6565b9250827fffffffffffffffffffffffffffffffffffffffffffffffffffffffffffffffff03821115612ab857612ab7612d49565b5b828201905092915050565b6000612ace82612bf6565b9150612ad983612bf6565b925082612ae957612ae8612d78565b5b828204905092915050565b6000612aff82612bf6565b9150612b0a83612bf6565b9250817fffffffffffffffffffffffffffffffffffffffffffffffffffffffffffffffff0483118215151615612b4357612b42612d49565b5b828202905092915050565b6000612b5982612bf6565b9150612b6483612bf6565b925082821015612b7757612b76612d49565b5b828203905092915050565b6000612b8d82612bd6565b9050919050565b60008115159050919050565b6000819050919050565b60007fffffffff0000000000000000000000000000000000000000000000000000000082169050919050565b600073ffffffffffffffffffffffffffffffffffffffff82169050919050565b6000819050919050565b82818337600083830152505050565b60005b83811015612c2d578082015181840152602081019050612c12565b83811115612c3c576000848401525b50505050565b6000612c4d82612bf6565b91506000821415612c6157612c60612d49565b5b600182039050919050565b60006002820490506001821680612c8457607f821691505b60208210811415612c9857612c97612da7565b5b50919050565b612ca782612e05565b810181811067ffffffffffffffff82111715612cc657612cc5612dd6565b5b80604052505050565b6000612cda82612bf6565b91507fffffffffffffffffffffffffffffffffffffffffffffffffffffffffffffffff821415612d0d57612d0c612d49565b5b600182019050919050565b6000612d2382612bf6565b9150612d2e83612bf6565b925082612d3e57612d3d612d78565b5b828206905092915050565b7f4e487b7100000000000000000000000000000000000000000000000000000000600052601160045260246000fd5b7f4e487b7100000000000000000000000000000000000000000000000000000000600052601260045260246000fd5b7f4e487b7100000000000000000000000000000000000000000000000000000000600052602260045260246000fd5b7f4e487b7100000000000000000000000000000000000000000000000000000000600052604160045260246000fd5b6000601f19601f8301169050919050565b7f537472696e67733a20686578206c656e67746820696e73756666696369656e74600082015250565b7f4552433732313a207472616e7366657220746f206e6f6e20455243373231526560008201527f63656976657220696d706c656d656e7465720000000000000000000000000000602082015250565b7f4552433732313a207472616e736665722066726f6d20696e636f72726563742060008201527f6f776e6572000000000000000000000000000000000000000000000000000000602082015250565b7f4552433732313a20746f6b656e20616c7265616479206d696e74656400000000600082015250565b7f4552433732313a207472616e7366657220746f20746865207a65726f2061646460008201527f7265737300000000000000000000000000000000000000000000000000000000602082015250565b7f4552433732313a20617070726f766520746f2063616c6c657200000000000000600082015250565b7f4552433732313a206f70657261746f7220717565727920666f72206e6f6e657860008201527f697374656e7420746f6b656e0000000000000000000000000000000000000000602082015250565b7f4552433732313a20617070726f76652063616c6c6572206973206e6f74206f7760008201527f6e6572206e6f7220617070726f76656420666f7220616c6c0000000000000000602082015250565b7f4552433732313a2062616c616e636520717565727920666f7220746865207a6560008201527f726f206164647265737300000000000000000000000000000000000000000000602082015250565b7f4552433732313a206f776e657220717565727920666f72206e6f6e657869737460008201527f656e7420746f6b656e0000000000000000000000000000000000000000000000602082015250565b7f4552433732313a206d696e7420746f20746865207a65726f2061646472657373600082015250565b7f4552433732313a20617070726f76656420717565727920666f72206e6f6e657860008201527f697374656e7420746f6b656e0000000000000000000000000000000000000000602082015250565b7f4552433732314d657461646174613a2055524920717565727920666f72206e6f60008201527f6e6578697374656e7420746f6b656e0000000000000000000000000000000000602082015250565b7f4552433732313a20617070726f76616c20746f2063757272656e74206f776e6560008201527f7200000000000000000000000000000000000000000000000000000000000000602082015250565b7f4552433732313a207472616e736665722063616c6c6572206973206e6f74206f60008201527f776e6572206e6f7220617070726f766564000000000000000000000000000000602082015250565b7f416363657373436f6e74726f6c3a206163636f756e7420000000000000000000600082015250565b7f206973206d697373696e6720726f6c6520000000000000000000000000000000600082015250565b7f416363657373436f6e74726f6c3a2063616e206f6e6c792072656e6f756e636560008201527f20726f6c657320666f722073656c660000000000000000000000000000000000602082015250565b6132c981612b82565b81146132d457600080fd5b50565b6132e081612b94565b81146132eb57600080fd5b50565b6132f781612ba0565b811461330257600080fd5b50565b61330e81612baa565b811461331957600080fd5b50565b61332581612bf6565b811461333057600080fd5b5056fea2646970667358221220bda1d6de744a5d4b70d4f6863cbdf9bf9dd10409428af8da8bb841e4665b2f9d64736f6c63430008040033",
  "linkReferences": {},
  "deployedLinkReferences": {}
}