{
  "_format": "hh-sol-artifact-1",
  "contractName": "LuckyLotteryNFT",
  "sourceName": "contracts/LuckyLotteryNFT.sol",
  "abi": [
    {
      "inputs": [],
      "stateMutability": "nonpayable",
      "type": "constructor"
    },
    {
      "anonymous": false,
      "inputs": [
        {
          "indexed": true,
          "internalType": "address",
          "name": "owner",
          "type": "address"
        },
        {
          "indexed": true,
          "internalType": "address",
          "name": "approved",
          "type": "address"
        },
        {
          "indexed": true,
          "internalType": "uint256",
          "name": "tokenId",
          "type": "uint256"
        }
      ],
      "name": "Approval",
      "type": "event"
    },
    {
      "anonymous": false,
      "inputs": [
        {
          "indexed": true,
          "internalType": "address",
          "name": "owner",
          "type": "address"
        },
        {
          "indexed": true,
          "internalType": "address",
          "name": "operator",
          "type": "address"
        },
        {
          "indexed": false,
          "internalType": "bool",
          "name": "approved",
          "type": "bool"
        }
      ],
      "name": "ApprovalForAll",
      "type": "event"
    },
    {
      "anonymous": false,
      "inputs": [
        {
          "indexed": true,
          "internalType": "address",
          "name": "from",
          "type": "address"
        },
        {
          "indexed": true,
          "internalType": "address",
          "name": "to",
          "type": "address"
        },
        {
          "indexed": true,
          "internalType": "uint256",
          "name": "tokenId",
          "type": "uint256"
        }
      ],
      "name": "Transfer",
      "type": "event"
    },
    {
      "inputs": [
        {
          "internalType": "address",
          "name": "to",
          "type": "address"
        },
        {
          "internalType": "uint256",
          "name": "tokenId",
          "type": "uint256"
        }
      ],
      "name": "approve",
      "outputs": [],
      "stateMutability": "nonpayable",
      "type": "function"
    },
    {
      "inputs": [
        {
          "internalType": "address",
          "name": "owner",
          "type": "address"
        }
      ],
      "name": "balanceOf",
      "outputs": [
        {
          "internalType": "uint256",
          "name": "",
          "type": "uint256"
        }
      ],
      "stateMutability": "view",
      "type": "function"
    },
    {
      "inputs": [
        {
          "internalType": "uint256",
          "name": "tokenId",
          "type": "uint256"
        }
      ],
      "name": "getApproved",
      "outputs": [
        {
          "internalType": "address",
          "name": "",
          "type": "address"
        }
      ],
      "stateMutability": "view",
      "type": "function"
    },
    {
      "inputs": [
        {
          "internalType": "address",
          "name": "owner",
          "type": "address"
        },
        {
          "internalType": "address",
          "name": "operator",
          "type": "address"
        }
      ],
      "name": "isApprovedForAll",
      "outputs": [
        {
          "internalType": "bool",
          "name": "",
          "type": "bool"
        }
      ],
      "stateMutability": "view",
      "type": "function"
    },
    {
      "inputs": [
        {
          "internalType": "address",
          "name": "_to",
          "type": "address"
        },
        {
          "internalType": "string",
          "name": "_tokenURI",
          "type": "string"
        }
      ],
      "name": "mint",
      "outputs": [
        {
          "internalType": "bool",
          "name": "",
          "type": "bool"
        }
      ],
      "stateMutability": "nonpayable",
      "type": "function"
    },
    {
      "inputs": [],
      "name": "name",
      "outputs": [
        {
          "internalType": "string",
          "name": "",
          "type": "string"
        }
      ],
      "stateMutability": "view",
      "type": "function"
    },
    {
      "inputs": [],
      "name": "owner",
      "outputs": [
        {
          "internalType": "address",
          "name": "",
          "type": "address"
        }
      ],
      "stateMutability": "view",
      "type": "function"
    },
    {
      "inputs": [
        {
          "internalType": "uint256",
          "name": "tokenId",
          "type": "uint256"
        }
      ],
      "name": "ownerOf",
      "outputs": [
        {
          "internalType": "address",
          "name": "",
          "type": "address"
        }
      ],
      "stateMutability": "view",
      "type": "function"
    },
    {
      "inputs": [
        {
          "internalType": "address",
          "name": "from",
          "type": "address"
        },
        {
          "internalType": "address",
          "name": "to",
          "type": "address"
        },
        {
          "internalType": "uint256",
          "name": "tokenId",
          "type": "uint256"
        }
      ],
      "name": "safeTransferFrom",
      "outputs": [],
      "stateMutability": "nonpayable",
      "type": "function"
    },
    {
      "inputs": [
        {
          "internalType": "address",
          "name": "from",
          "type": "address"
        },
        {
          "internalType": "address",
          "name": "to",
          "type": "address"
        },
        {
          "internalType": "uint256",
          "name": "tokenId",
          "type": "uint256"
        },
        {
          "internalType": "bytes",
          "name": "_data",
          "type": "bytes"
        }
      ],
      "name": "safeTransferFrom",
      "outputs": [],
      "stateMutability": "nonpayable",
      "type": "function"
    },
    {
      "inputs": [
        {
          "internalType": "address",
          "name": "operator",
          "type": "address"
        },
        {
          "internalType": "bool",
          "name": "approved",
          "type": "bool"
        }
      ],
      "name": "setApprovalForAll",
      "outputs": [],
      "stateMutability": "nonpayable",
      "type": "function"
    },
    {
      "inputs": [
        {
          "internalType": "bytes4",
          "name": "interfaceId",
          "type": "bytes4"
        }
      ],
      "name": "supportsInterface",
      "outputs": [
        {
          "internalType": "bool",
          "name": "",
          "type": "bool"
        }
      ],
      "stateMutability": "view",
      "type": "function"
    },
    {
      "inputs": [],
      "name": "symbol",
      "outputs": [
        {
          "internalType": "string",
          "name": "",
          "type": "string"
        }
      ],
      "stateMutability": "view",
      "type": "function"
    },
    {
      "inputs": [
        {
          "internalType": "uint256",
          "name": "tokenId",
          "type": "uint256"
        }
      ],
      "name": "tokenURI",
      "outputs": [
        {
          "internalType": "string",
          "name": "",
          "type": "string"
        }
      ],
      "stateMutability": "view",
      "type": "function"
    },
    {
      "inputs": [
        {
          "internalType": "address",
          "name": "from",
          "type": "address"
        },
        {
          "internalType": "address",
          "name": "to",
          "type": "address"
        },
        {
          "internalType": "uint256",
          "name": "tokenId",
          "type": "uint256"
        }
      ],
      "name": "transferFrom",
      "outputs": [],
      "stateMutability": "nonpayable",
      "type": "function"
    }
  ],
  "bytecode": "0x60806040523480156200001157600080fd5b506040518060400160405280601081526020017f53747564656e744465736b546f6b656e000000000000000000000000000000008152506040518060400160405280600381526020017f5354440000000000000000000000000000000000000000000000000000000000815250816000908051906020019062000096929190620000f9565b508060019080519060200190620000af929190620000f9565b50505033600860006101000a81548173ffffffffffffffffffffffffffffffffffffffff021916908373ffffffffffffffffffffffffffffffffffffffff1602179055506200020e565b8280546200010790620001a9565b90600052602060002090601f0160209004810192826200012b576000855562000177565b82601f106200014657805160ff191683800117855562000177565b8280016001018555821562000177579182015b828111156200017657825182559160200191906001019062000159565b5b5090506200018691906200018a565b5090565b5b80821115620001a55760008160009055506001016200018b565b5090565b60006002820490506001821680620001c257607f821691505b60208210811415620001d957620001d8620001df565b5b50919050565b7f4e487b7100000000000000000000000000000000000000000000000000000000600052602260045260246000fd5b612ca3806200021e6000396000f3fe608060405234801561001057600080fd5b50600436106100f55760003560e01c806370a0823111610097578063b88d4fde11610066578063b88d4fde14610284578063c87b56dd146102a0578063d0def521146102d0578063e985e9c514610300576100f5565b806370a08231146101fc5780638da5cb5b1461022c57806395d89b411461024a578063a22cb46514610268576100f5565b8063095ea7b3116100d3578063095ea7b31461017857806323b872dd1461019457806342842e0e146101b05780636352211e146101cc576100f5565b806301ffc9a7146100fa57806306fdde031461012a578063081812fc14610148575b600080fd5b610114600480360381019061010f9190611ce4565b610330565b604051610121919061210d565b60405180910390f35b610132610412565b60405161013f9190612128565b60405180910390f35b610162600480360381019061015d9190611d36565b6104a4565b60405161016f91906120a6565b60405180910390f35b610192600480360381019061018d9190611ca8565b610529565b005b6101ae60048036038101906101a99190611b4e565b610641565b005b6101ca60048036038101906101c59190611b4e565b6106a1565b005b6101e660048036038101906101e19190611d36565b6106c1565b6040516101f391906120a6565b60405180910390f35b61021660048036038101906102119190611ae9565b610773565b604051610223919061236a565b60405180910390f35b61023461082b565b60405161024191906120a6565b60405180910390f35b610252610851565b60405161025f9190612128565b60405180910390f35b610282600480360381019061027d9190611c18565b6108e3565b005b61029e60048036038101906102999190611b9d565b6108f9565b005b6102ba60048036038101906102b59190611d36565b61095b565b6040516102c79190612128565b60405180910390f35b6102ea60048036038101906102e59190611c54565b610aad565b6040516102f7919061210d565b60405180910390f35b61031a60048036038101906103159190611b12565b610b33565b604051610327919061210d565b60405180910390f35b60007f80ac58cd000000000000000000000000000000000000000000000000000000007bffffffffffffffffffffffffffffffffffffffffffffffffffffffff1916827bffffffffffffffffffffffffffffffffffffffffffffffffffffffff191614806103fb57507f5b5e139f000000000000000000000000000000000000000000000000000000007bffffffffffffffffffffffffffffffffffffffffffffffffffffffff1916827bffffffffffffffffffffffffffffffffffffffffffffffffffffffff1916145b8061040b575061040a82610bc7565b5b9050919050565b606060008054610421906125c0565b80601f016020809104026020016040519081016040528092919081815260200182805461044d906125c0565b801561049a5780601f1061046f5761010080835404028352916020019161049a565b820191906000526020600020905b81548152906001019060200180831161047d57829003601f168201915b5050505050905090565b60006104af82610c31565b6104ee576040517f08c379a00000000000000000000000000000000000000000000000000000000081526004016104e5906122ca565b60405180910390fd5b6004600083815260200190815260200160002060009054906101000a900473ffffffffffffffffffffffffffffffffffffffff169050919050565b6000610534826106c1565b90508073ffffffffffffffffffffffffffffffffffffffff168373ffffffffffffffffffffffffffffffffffffffff1614156105a5576040517f08c379a000000000000000000000000000000000000000000000000000000000815260040161059c9061232a565b60405180910390fd5b8073ffffffffffffffffffffffffffffffffffffffff166105c4610c9d565b73ffffffffffffffffffffffffffffffffffffffff1614806105f357506105f2816105ed610c9d565b610b33565b5b610632576040517f08c379a00000000000000000000000000000000000000000000000000000000081526004016106299061220a565b60405180910390fd5b61063c8383610ca5565b505050565b61065261064c610c9d565b82610d5e565b610691576040517f08c379a00000000000000000000000000000000000000000000000000000000081526004016106889061234a565b60405180910390fd5b61069c838383610e3c565b505050565b6106bc838383604051806020016040528060008152506108f9565b505050565b6000806002600084815260200190815260200160002060009054906101000a900473ffffffffffffffffffffffffffffffffffffffff169050600073ffffffffffffffffffffffffffffffffffffffff168173ffffffffffffffffffffffffffffffffffffffff16141561076a576040517f08c379a00000000000000000000000000000000000000000000000000000000081526004016107619061224a565b60405180910390fd5b80915050919050565b60008073ffffffffffffffffffffffffffffffffffffffff168273ffffffffffffffffffffffffffffffffffffffff1614156107e4576040517f08c379a00000000000000000000000000000000000000000000000000000000081526004016107db9061222a565b60405180910390fd5b600360008373ffffffffffffffffffffffffffffffffffffffff1673ffffffffffffffffffffffffffffffffffffffff168152602001908152602001600020549050919050565b600860009054906101000a900473ffffffffffffffffffffffffffffffffffffffff1681565b606060018054610860906125c0565b80601f016020809104026020016040519081016040528092919081815260200182805461088c906125c0565b80156108d95780601f106108ae576101008083540402835291602001916108d9565b820191906000526020600020905b8154815290600101906020018083116108bc57829003601f168201915b5050505050905090565b6108f56108ee610c9d565b83836110a3565b5050565b61090a610904610c9d565b83610d5e565b610949576040517f08c379a00000000000000000000000000000000000000000000000000000000081526004016109409061234a565b60405180910390fd5b61095584848484611210565b50505050565b606061096682610c31565b6109a5576040517f08c379a000000000000000000000000000000000000000000000000000000000815260040161099c906122aa565b60405180910390fd5b60006006600084815260200190815260200160002080546109c5906125c0565b80601f01602080910402602001604051908101604052809291908181526020018280546109f1906125c0565b8015610a3e5780601f10610a1357610100808354040283529160200191610a3e565b820191906000526020600020905b815481529060010190602001808311610a2157829003601f168201915b505050505090506000610a4f61126c565b9050600081511415610a65578192505050610aa8565b600082511115610a9a578082604051602001610a82929190612082565b60405160208183030381529060405292505050610aa8565b610aa384611283565b925050505b919050565b6000612710610abc600761132a565b10610afc576040517f08c379a0000000000000000000000000000000000000000000000000000000008152600401610af39061230a565b60405180910390fd5b610b066007611338565b6000610b12600761132a565b9050610b1e848261134e565b610b288184611528565b600191505092915050565b6000600560008473ffffffffffffffffffffffffffffffffffffffff1673ffffffffffffffffffffffffffffffffffffffff16815260200190815260200160002060008373ffffffffffffffffffffffffffffffffffffffff1673ffffffffffffffffffffffffffffffffffffffff16815260200190815260200160002060009054906101000a900460ff16905092915050565b60007f01ffc9a7000000000000000000000000000000000000000000000000000000007bffffffffffffffffffffffffffffffffffffffffffffffffffffffff1916827bffffffffffffffffffffffffffffffffffffffffffffffffffffffff1916149050919050565b60008073ffffffffffffffffffffffffffffffffffffffff166002600084815260200190815260200160002060009054906101000a900473ffffffffffffffffffffffffffffffffffffffff1673ffffffffffffffffffffffffffffffffffffffff1614159050919050565b600033905090565b816004600083815260200190815260200160002060006101000a81548173ffffffffffffffffffffffffffffffffffffffff021916908373ffffffffffffffffffffffffffffffffffffffff160217905550808273ffffffffffffffffffffffffffffffffffffffff16610d18836106c1565b73ffffffffffffffffffffffffffffffffffffffff167f8c5be1e5ebec7d5bd14f71427d1e84f3dd0314c0f7b2291e5b200ac8c7c3b92560405160405180910390a45050565b6000610d6982610c31565b610da8576040517f08c379a0000000000000000000000000000000000000000000000000000000008152600401610d9f906121ea565b60405180910390fd5b6000610db3836106c1565b90508073ffffffffffffffffffffffffffffffffffffffff168473ffffffffffffffffffffffffffffffffffffffff161480610df55750610df48185610b33565b5b80610e3357508373ffffffffffffffffffffffffffffffffffffffff16610e1b846104a4565b73ffffffffffffffffffffffffffffffffffffffff16145b91505092915050565b8273ffffffffffffffffffffffffffffffffffffffff16610e5c826106c1565b73ffffffffffffffffffffffffffffffffffffffff1614610eb2576040517f08c379a0000000000000000000000000000000000000000000000000000000008152600401610ea99061216a565b60405180910390fd5b600073ffffffffffffffffffffffffffffffffffffffff168273ffffffffffffffffffffffffffffffffffffffff161415610f22576040517f08c379a0000000000000000000000000000000000000000000000000000000008152600401610f19906121aa565b60405180910390fd5b610f2d83838361159c565b610f38600082610ca5565b6001600360008573ffffffffffffffffffffffffffffffffffffffff1673ffffffffffffffffffffffffffffffffffffffff1681526020019081526020016000206000828254610f8891906124d6565b925050819055506001600360008473ffffffffffffffffffffffffffffffffffffffff1673ffffffffffffffffffffffffffffffffffffffff1681526020019081526020016000206000828254610fdf919061244f565b92505081905550816002600083815260200190815260200160002060006101000a81548173ffffffffffffffffffffffffffffffffffffffff021916908373ffffffffffffffffffffffffffffffffffffffff160217905550808273ffffffffffffffffffffffffffffffffffffffff168473ffffffffffffffffffffffffffffffffffffffff167fddf252ad1be2c89b69c2b068fc378daa952ba7f163c4a11628f55a4df523b3ef60405160405180910390a461109e8383836115a1565b505050565b8173ffffffffffffffffffffffffffffffffffffffff168373ffffffffffffffffffffffffffffffffffffffff161415611112576040517f08c379a0000000000000000000000000000000000000000000000000000000008152600401611109906121ca565b60405180910390fd5b80600560008573ffffffffffffffffffffffffffffffffffffffff1673ffffffffffffffffffffffffffffffffffffffff16815260200190815260200160002060008473ffffffffffffffffffffffffffffffffffffffff1673ffffffffffffffffffffffffffffffffffffffff16815260200190815260200160002060006101000a81548160ff0219169083151502179055508173ffffffffffffffffffffffffffffffffffffffff168373ffffffffffffffffffffffffffffffffffffffff167f17307eab39ab6107e8899845ad3d59bd9653f200f220920489ca2b5937696c3183604051611203919061210d565b60405180910390a3505050565b61121b848484610e3c565b611227848484846115a6565b611266576040517f08c379a000000000000000000000000000000000000000000000000000000000815260040161125d9061214a565b60405180910390fd5b50505050565b606060405180602001604052806000815250905090565b606061128e82610c31565b6112cd576040517f08c379a00000000000000000000000000000000000000000000000000000000081526004016112c4906122ea565b60405180910390fd5b60006112d761126c565b905060008151116112f75760405180602001604052806000815250611322565b806113018461173d565b604051602001611312929190612082565b6040516020818303038152906040525b915050919050565b600081600001549050919050565b6001816000016000828254019250508190555050565b600073ffffffffffffffffffffffffffffffffffffffff168273ffffffffffffffffffffffffffffffffffffffff1614156113be576040517f08c379a00000000000000000000000000000000000000000000000000000000081526004016113b59061228a565b60405180910390fd5b6113c781610c31565b15611407576040517f08c379a00000000000000000000000000000000000000000000000000000000081526004016113fe9061218a565b60405180910390fd5b6114136000838361159c565b6001600360008473ffffffffffffffffffffffffffffffffffffffff1673ffffffffffffffffffffffffffffffffffffffff1681526020019081526020016000206000828254611463919061244f565b92505081905550816002600083815260200190815260200160002060006101000a81548173ffffffffffffffffffffffffffffffffffffffff021916908373ffffffffffffffffffffffffffffffffffffffff160217905550808273ffffffffffffffffffffffffffffffffffffffff16600073ffffffffffffffffffffffffffffffffffffffff167fddf252ad1be2c89b69c2b068fc378daa952ba7f163c4a11628f55a4df523b3ef60405160405180910390a4611524600083836115a1565b5050565b61153182610c31565b611570576040517f08c379a00000000000000000000000000000000000000000000000000000000081526004016115679061226a565b60405180910390fd5b8060066000848152602001908152602001600020908051906020019061159792919061190d565b505050565b505050565b505050565b60006115c78473ffffffffffffffffffffffffffffffffffffffff166118ea565b15611730578373ffffffffffffffffffffffffffffffffffffffff1663150b7a026115f0610c9d565b8786866040518563ffffffff1660e01b815260040161161294939291906120c1565b602060405180830381600087803b15801561162c57600080fd5b505af192505050801561165d57506040513d601f19601f8201168201806040525081019061165a9190611d0d565b60015b6116e0573d806000811461168d576040519150601f19603f3d011682016040523d82523d6000602084013e611692565b606091505b506000815114156116d8576040517f08c379a00000000000000000000000000000000000000000000000000000000081526004016116cf9061214a565b60405180910390fd5b805181602001fd5b63150b7a0260e01b7bffffffffffffffffffffffffffffffffffffffffffffffffffffffff1916817bffffffffffffffffffffffffffffffffffffffffffffffffffffffff191614915050611735565b600190505b949350505050565b60606000821415611785576040518060400160405280600181526020017f300000000000000000000000000000000000000000000000000000000000000081525090506118e5565b600082905060005b600082146117b75780806117a090612623565b915050600a826117b091906124a5565b915061178d565b60008167ffffffffffffffff8111156117f9577f4e487b7100000000000000000000000000000000000000000000000000000000600052604160045260246000fd5b6040519080825280601f01601f19166020018201604052801561182b5781602001600182028036833780820191505090505b5090505b600085146118de5760018261184491906124d6565b9150600a85611853919061266c565b603061185f919061244f565b60f81b81838151811061189b577f4e487b7100000000000000000000000000000000000000000000000000000000600052603260045260246000fd5b60200101907effffffffffffffffffffffffffffffffffffffffffffffffffffffffffffff1916908160001a905350600a856118d791906124a5565b945061182f565b8093505050505b919050565b6000808273ffffffffffffffffffffffffffffffffffffffff163b119050919050565b828054611919906125c0565b90600052602060002090601f01602090048101928261193b5760008555611982565b82601f1061195457805160ff1916838001178555611982565b82800160010185558215611982579182015b82811115611981578251825591602001919060010190611966565b5b50905061198f9190611993565b5090565b5b808211156119ac576000816000905550600101611994565b5090565b60006119c36119be846123aa565b612385565b9050828152602081018484840111156119db57600080fd5b6119e684828561257e565b509392505050565b6000611a016119fc846123db565b612385565b905082815260208101848484011115611a1957600080fd5b611a2484828561257e565b509392505050565b600081359050611a3b81612c11565b92915050565b600081359050611a5081612c28565b92915050565b600081359050611a6581612c3f565b92915050565b600081519050611a7a81612c3f565b92915050565b600082601f830112611a9157600080fd5b8135611aa18482602086016119b0565b91505092915050565b600082601f830112611abb57600080fd5b8135611acb8482602086016119ee565b91505092915050565b600081359050611ae381612c56565b92915050565b600060208284031215611afb57600080fd5b6000611b0984828501611a2c565b91505092915050565b60008060408385031215611b2557600080fd5b6000611b3385828601611a2c565b9250506020611b4485828601611a2c565b9150509250929050565b600080600060608486031215611b6357600080fd5b6000611b7186828701611a2c565b9350506020611b8286828701611a2c565b9250506040611b9386828701611ad4565b9150509250925092565b60008060008060808587031215611bb357600080fd5b6000611bc187828801611a2c565b9450506020611bd287828801611a2c565b9350506040611be387828801611ad4565b925050606085013567ffffffffffffffff811115611c0057600080fd5b611c0c87828801611a80565b91505092959194509250565b60008060408385031215611c2b57600080fd5b6000611c3985828601611a2c565b9250506020611c4a85828601611a41565b9150509250929050565b60008060408385031215611c6757600080fd5b6000611c7585828601611a2c565b925050602083013567ffffffffffffffff811115611c9257600080fd5b611c9e85828601611aaa565b9150509250929050565b60008060408385031215611cbb57600080fd5b6000611cc985828601611a2c565b9250506020611cda85828601611ad4565b9150509250929050565b600060208284031215611cf657600080fd5b6000611d0484828501611a56565b91505092915050565b600060208284031215611d1f57600080fd5b6000611d2d84828501611a6b565b91505092915050565b600060208284031215611d4857600080fd5b6000611d5684828501611ad4565b91505092915050565b611d688161250a565b82525050565b611d778161251c565b82525050565b6000611d888261240c565b611d928185612422565b9350611da281856020860161258d565b611dab81612759565b840191505092915050565b6000611dc182612417565b611dcb8185612433565b9350611ddb81856020860161258d565b611de481612759565b840191505092915050565b6000611dfa82612417565b611e048185612444565b9350611e1481856020860161258d565b80840191505092915050565b6000611e2d603283612433565b9150611e388261276a565b604082019050919050565b6000611e50602583612433565b9150611e5b826127b9565b604082019050919050565b6000611e73601c83612433565b9150611e7e82612808565b602082019050919050565b6000611e96602483612433565b9150611ea182612831565b604082019050919050565b6000611eb9601983612433565b9150611ec482612880565b602082019050919050565b6000611edc602c83612433565b9150611ee7826128a9565b604082019050919050565b6000611eff603883612433565b9150611f0a826128f8565b604082019050919050565b6000611f22602a83612433565b9150611f2d82612947565b604082019050919050565b6000611f45602983612433565b9150611f5082612996565b604082019050919050565b6000611f68602e83612433565b9150611f73826129e5565b604082019050919050565b6000611f8b602083612433565b9150611f9682612a34565b602082019050919050565b6000611fae603183612433565b9150611fb982612a5d565b604082019050919050565b6000611fd1602c83612433565b9150611fdc82612aac565b604082019050919050565b6000611ff4602f83612433565b9150611fff82612afb565b604082019050919050565b6000612017601a83612433565b915061202282612b4a565b602082019050919050565b600061203a602183612433565b915061204582612b73565b604082019050919050565b600061205d603183612433565b915061206882612bc2565b604082019050919050565b61207c81612574565b82525050565b600061208e8285611def565b915061209a8284611def565b91508190509392505050565b60006020820190506120bb6000830184611d5f565b92915050565b60006080820190506120d66000830187611d5f565b6120e36020830186611d5f565b6120f06040830185612073565b81810360608301526121028184611d7d565b905095945050505050565b60006020820190506121226000830184611d6e565b92915050565b600060208201905081810360008301526121428184611db6565b905092915050565b6000602082019050818103600083015261216381611e20565b9050919050565b6000602082019050818103600083015261218381611e43565b9050919050565b600060208201905081810360008301526121a381611e66565b9050919050565b600060208201905081810360008301526121c381611e89565b9050919050565b600060208201905081810360008301526121e381611eac565b9050919050565b6000602082019050818103600083015261220381611ecf565b9050919050565b6000602082019050818103600083015261222381611ef2565b9050919050565b6000602082019050818103600083015261224381611f15565b9050919050565b6000602082019050818103600083015261226381611f38565b9050919050565b6000602082019050818103600083015261228381611f5b565b9050919050565b600060208201905081810360008301526122a381611f7e565b9050919050565b600060208201905081810360008301526122c381611fa1565b9050919050565b600060208201905081810360008301526122e381611fc4565b9050919050565b6000602082019050818103600083015261230381611fe7565b9050919050565b600060208201905081810360008301526123238161200a565b9050919050565b600060208201905081810360008301526123438161202d565b9050919050565b6000602082019050818103600083015261236381612050565b9050919050565b600060208201905061237f6000830184612073565b92915050565b600061238f6123a0565b905061239b82826125f2565b919050565b6000604051905090565b600067ffffffffffffffff8211156123c5576123c461272a565b5b6123ce82612759565b9050602081019050919050565b600067ffffffffffffffff8211156123f6576123f561272a565b5b6123ff82612759565b9050602081019050919050565b600081519050919050565b600081519050919050565b600082825260208201905092915050565b600082825260208201905092915050565b600081905092915050565b600061245a82612574565b915061246583612574565b9250827fffffffffffffffffffffffffffffffffffffffffffffffffffffffffffffffff0382111561249a5761249961269d565b5b828201905092915050565b60006124b082612574565b91506124bb83612574565b9250826124cb576124ca6126cc565b5b828204905092915050565b60006124e182612574565b91506124ec83612574565b9250828210156124ff576124fe61269d565b5b828203905092915050565b600061251582612554565b9050919050565b60008115159050919050565b60007fffffffff0000000000000000000000000000000000000000000000000000000082169050919050565b600073ffffffffffffffffffffffffffffffffffffffff82169050919050565b6000819050919050565b82818337600083830152505050565b60005b838110156125ab578082015181840152602081019050612590565b838111156125ba576000848401525b50505050565b600060028204905060018216806125d857607f821691505b602082108114156125ec576125eb6126fb565b5b50919050565b6125fb82612759565b810181811067ffffffffffffffff8211171561261a5761261961272a565b5b80604052505050565b600061262e82612574565b91507fffffffffffffffffffffffffffffffffffffffffffffffffffffffffffffffff8214156126615761266061269d565b5b600182019050919050565b600061267782612574565b915061268283612574565b925082612692576126916126cc565b5b828206905092915050565b7f4e487b7100000000000000000000000000000000000000000000000000000000600052601160045260246000fd5b7f4e487b7100000000000000000000000000000000000000000000000000000000600052601260045260246000fd5b7f4e487b7100000000000000000000000000000000000000000000000000000000600052602260045260246000fd5b7f4e487b7100000000000000000000000000000000000000000000000000000000600052604160045260246000fd5b6000601f19601f8301169050919050565b7f4552433732313a207472616e7366657220746f206e6f6e20455243373231526560008201527f63656976657220696d706c656d656e7465720000000000000000000000000000602082015250565b7f4552433732313a207472616e736665722066726f6d20696e636f72726563742060008201527f6f776e6572000000000000000000000000000000000000000000000000000000602082015250565b7f4552433732313a20746f6b656e20616c7265616479206d696e74656400000000600082015250565b7f4552433732313a207472616e7366657220746f20746865207a65726f2061646460008201527f7265737300000000000000000000000000000000000000000000000000000000602082015250565b7f4552433732313a20617070726f766520746f2063616c6c657200000000000000600082015250565b7f4552433732313a206f70657261746f7220717565727920666f72206e6f6e657860008201527f697374656e7420746f6b656e0000000000000000000000000000000000000000602082015250565b7f4552433732313a20617070726f76652063616c6c6572206973206e6f74206f7760008201527f6e6572206e6f7220617070726f76656420666f7220616c6c0000000000000000602082015250565b7f4552433732313a2062616c616e636520717565727920666f7220746865207a6560008201527f726f206164647265737300000000000000000000000000000000000000000000602082015250565b7f4552433732313a206f776e657220717565727920666f72206e6f6e657869737460008201527f656e7420746f6b656e0000000000000000000000000000000000000000000000602082015250565b7f45524337323155524953746f726167653a2055524920736574206f66206e6f6e60008201527f6578697374656e7420746f6b656e000000000000000000000000000000000000602082015250565b7f4552433732313a206d696e7420746f20746865207a65726f2061646472657373600082015250565b7f45524337323155524953746f726167653a2055524920717565727920666f722060008201527f6e6f6e6578697374656e7420746f6b656e000000000000000000000000000000602082015250565b7f4552433732313a20617070726f76656420717565727920666f72206e6f6e657860008201527f697374656e7420746f6b656e0000000000000000000000000000000000000000602082015250565b7f4552433732314d657461646174613a2055524920717565727920666f72206e6f60008201527f6e6578697374656e7420746f6b656e0000000000000000000000000000000000602082015250565b7f4e6f204d6f7265204e4654732063616e206265206d696e746564000000000000600082015250565b7f4552433732313a20617070726f76616c20746f2063757272656e74206f776e6560008201527f7200000000000000000000000000000000000000000000000000000000000000602082015250565b7f4552433732313a207472616e736665722063616c6c6572206973206e6f74206f60008201527f776e6572206e6f7220617070726f766564000000000000000000000000000000602082015250565b612c1a8161250a565b8114612c2557600080fd5b50565b612c318161251c565b8114612c3c57600080fd5b50565b612c4881612528565b8114612c5357600080fd5b50565b612c5f81612574565b8114612c6a57600080fd5b5056fea26469706673582212209fad51a00e933dac401745994517360325fc1440e5c3e013a94c56450747800364736f6c63430008040033",
  "linkReferences": {},
  "deployedLinkReferences": {}
}