{
  "_format": "hh-sol-artifact-1",
  "contractName": "MemoryGameNFT",
  "sourceName": "contracts/MemoryGameNFT.sol",
  "abi": [
    {
      "inputs": [],
      "stateMutability": "nonpayable",
      "type": "constructor"
    },
    {
      "anonymous": false,
      "inputs": [
        {
          "indexed": true,
          "internalType": "address",
          "name": "owner",
          "type": "address"
        },
        {
          "indexed": true,
          "internalType": "address",
          "name": "approved",
          "type": "address"
        },
        {
          "indexed": true,
          "internalType": "uint256",
          "name": "tokenId",
          "type": "uint256"
        }
      ],
      "name": "Approval",
      "type": "event"
    },
    {
      "anonymous": false,
      "inputs": [
        {
          "indexed": true,
          "internalType": "address",
          "name": "owner",
          "type": "address"
        },
        {
          "indexed": true,
          "internalType": "address",
          "name": "operator",
          "type": "address"
        },
        {
          "indexed": false,
          "internalType": "bool",
          "name": "approved",
          "type": "bool"
        }
      ],
      "name": "ApprovalForAll",
      "type": "event"
    },
    {
      "anonymous": false,
      "inputs": [
        {
          "indexed": true,
          "internalType": "address",
          "name": "from",
          "type": "address"
        },
        {
          "indexed": true,
          "internalType": "address",
          "name": "to",
          "type": "address"
        },
        {
          "indexed": true,
          "internalType": "uint256",
          "name": "tokenId",
          "type": "uint256"
        }
      ],
      "name": "Transfer",
      "type": "event"
    },
    {
      "inputs": [
        {
          "internalType": "address",
          "name": "to",
          "type": "address"
        },
        {
          "internalType": "uint256",
          "name": "tokenId",
          "type": "uint256"
        }
      ],
      "name": "approve",
      "outputs": [],
      "stateMutability": "nonpayable",
      "type": "function"
    },
    {
      "inputs": [
        {
          "internalType": "address",
          "name": "owner",
          "type": "address"
        }
      ],
      "name": "balanceOf",
      "outputs": [
        {
          "internalType": "uint256",
          "name": "",
          "type": "uint256"
        }
      ],
      "stateMutability": "view",
      "type": "function"
    },
    {
      "inputs": [
        {
          "internalType": "uint256",
          "name": "tokenId",
          "type": "uint256"
        }
      ],
      "name": "getApproved",
      "outputs": [
        {
          "internalType": "address",
          "name": "",
          "type": "address"
        }
      ],
      "stateMutability": "view",
      "type": "function"
    },
    {
      "inputs": [
        {
          "internalType": "address",
          "name": "owner",
          "type": "address"
        },
        {
          "internalType": "address",
          "name": "operator",
          "type": "address"
        }
      ],
      "name": "isApprovedForAll",
      "outputs": [
        {
          "internalType": "bool",
          "name": "",
          "type": "bool"
        }
      ],
      "stateMutability": "view",
      "type": "function"
    },
    {
      "inputs": [
        {
          "internalType": "address",
          "name": "_to",
          "type": "address"
        },
        {
          "internalType": "string",
          "name": "_tokenURI",
          "type": "string"
        }
      ],
      "name": "mint",
      "outputs": [
        {
          "internalType": "bool",
          "name": "",
          "type": "bool"
        }
      ],
      "stateMutability": "nonpayable",
      "type": "function"
    },
    {
      "inputs": [],
      "name": "name",
      "outputs": [
        {
          "internalType": "string",
          "name": "",
          "type": "string"
        }
      ],
      "stateMutability": "view",
      "type": "function"
    },
    {
      "inputs": [],
      "name": "owner",
      "outputs": [
        {
          "internalType": "address",
          "name": "",
          "type": "address"
        }
      ],
      "stateMutability": "view",
      "type": "function"
    },
    {
      "inputs": [
        {
          "internalType": "uint256",
          "name": "tokenId",
          "type": "uint256"
        }
      ],
      "name": "ownerOf",
      "outputs": [
        {
          "internalType": "address",
          "name": "",
          "type": "address"
        }
      ],
      "stateMutability": "view",
      "type": "function"
    },
    {
      "inputs": [
        {
          "internalType": "address",
          "name": "from",
          "type": "address"
        },
        {
          "internalType": "address",
          "name": "to",
          "type": "address"
        },
        {
          "internalType": "uint256",
          "name": "tokenId",
          "type": "uint256"
        }
      ],
      "name": "safeTransferFrom",
      "outputs": [],
      "stateMutability": "nonpayable",
      "type": "function"
    },
    {
      "inputs": [
        {
          "internalType": "address",
          "name": "from",
          "type": "address"
        },
        {
          "internalType": "address",
          "name": "to",
          "type": "address"
        },
        {
          "internalType": "uint256",
          "name": "tokenId",
          "type": "uint256"
        },
        {
          "internalType": "bytes",
          "name": "_data",
          "type": "bytes"
        }
      ],
      "name": "safeTransferFrom",
      "outputs": [],
      "stateMutability": "nonpayable",
      "type": "function"
    },
    {
      "inputs": [
        {
          "internalType": "address",
          "name": "operator",
          "type": "address"
        },
        {
          "internalType": "bool",
          "name": "approved",
          "type": "bool"
        }
      ],
      "name": "setApprovalForAll",
      "outputs": [],
      "stateMutability": "nonpayable",
      "type": "function"
    },
    {
      "inputs": [
        {
          "internalType": "bytes4",
          "name": "interfaceId",
          "type": "bytes4"
        }
      ],
      "name": "supportsInterface",
      "outputs": [
        {
          "internalType": "bool",
          "name": "",
          "type": "bool"
        }
      ],
      "stateMutability": "view",
      "type": "function"
    },
    {
      "inputs": [],
      "name": "symbol",
      "outputs": [
        {
          "internalType": "string",
          "name": "",
          "type": "string"
        }
      ],
      "stateMutability": "view",
      "type": "function"
    },
    {
      "inputs": [
        {
          "internalType": "address",
          "name": "owner",
          "type": "address"
        },
        {
          "internalType": "uint256",
          "name": "index",
          "type": "uint256"
        }
      ],
      "name": "tokenOfOwnerByIndex",
      "outputs": [
        {
          "internalType": "uint256",
          "name": "",
          "type": "uint256"
        }
      ],
      "stateMutability": "view",
      "type": "function"
    },
    {
      "inputs": [
        {
          "internalType": "uint256",
          "name": "tokenId",
          "type": "uint256"
        }
      ],
      "name": "tokenURI",
      "outputs": [
        {
          "internalType": "string",
          "name": "",
          "type": "string"
        }
      ],
      "stateMutability": "view",
      "type": "function"
    },
    {
      "inputs": [
        {
          "internalType": "address",
          "name": "from",
          "type": "address"
        },
        {
          "internalType": "address",
          "name": "to",
          "type": "address"
        },
        {
          "internalType": "uint256",
          "name": "tokenId",
          "type": "uint256"
        }
      ],
      "name": "transferFrom",
      "outputs": [],
      "stateMutability": "nonpayable",
      "type": "function"
    }
  ],
  "bytecode": "0x60806040523480156200001157600080fd5b506040518060400160405280600d81526020017f42696742756c6c47616d657273000000000000000000000000000000000000008152506040518060400160405280600381526020017f4242470000000000000000000000000000000000000000000000000000000000815250816000908051906020019062000096929190620000f9565b508060019080519060200190620000af929190620000f9565b50505033600860006101000a81548173ffffffffffffffffffffffffffffffffffffffff021916908373ffffffffffffffffffffffffffffffffffffffff1602179055506200020e565b8280546200010790620001a9565b90600052602060002090601f0160209004810192826200012b576000855562000177565b82601f106200014657805160ff191683800117855562000177565b8280016001018555821562000177579182015b828111156200017657825182559160200191906001019062000159565b5b5090506200018691906200018a565b5090565b5b80821115620001a55760008160009055506001016200018b565b5090565b60006002820490506001821680620001c257607f821691505b60208210811415620001d957620001d8620001df565b5b50919050565b7f4e487b7100000000000000000000000000000000000000000000000000000000600052602260045260246000fd5b612e15806200021e6000396000f3fe608060405234801561001057600080fd5b50600436106101005760003560e01c806370a0823111610097578063b88d4fde11610066578063b88d4fde146102bf578063c87b56dd146102db578063d0def5211461030b578063e985e9c51461033b57610100565b806370a08231146102375780638da5cb5b1461026757806395d89b4114610285578063a22cb465146102a357610100565b806323b872dd116100d357806323b872dd1461019f5780632f745c59146101bb57806342842e0e146101eb5780636352211e1461020757610100565b806301ffc9a71461010557806306fdde0314610135578063081812fc14610153578063095ea7b314610183575b600080fd5b61011f600480360381019061011a9190611dc4565b61036b565b60405161012c9190612210565b60405180910390f35b61013d61044d565b60405161014a919061222b565b60405180910390f35b61016d60048036038101906101689190611e16565b6104df565b60405161017a91906121a9565b60405180910390f35b61019d60048036038101906101989190611d88565b610564565b005b6101b960048036038101906101b49190611c2e565b61067c565b005b6101d560048036038101906101d09190611d88565b6106dc565b6040516101e2919061248d565b60405180910390f35b61020560048036038101906102009190611c2e565b610781565b005b610221600480360381019061021c9190611e16565b6107a1565b60405161022e91906121a9565b60405180910390f35b610251600480360381019061024c9190611bc9565b610853565b60405161025e919061248d565b60405180910390f35b61026f61090b565b60405161027c91906121a9565b60405180910390f35b61028d610931565b60405161029a919061222b565b60405180910390f35b6102bd60048036038101906102b89190611cf8565b6109c3565b005b6102d960048036038101906102d49190611c7d565b6109d9565b005b6102f560048036038101906102f09190611e16565b610a3b565b604051610302919061222b565b60405180910390f35b61032560048036038101906103209190611d34565b610b8d565b6040516103329190612210565b60405180910390f35b61035560048036038101906103509190611bf2565b610c13565b6040516103629190612210565b60405180910390f35b60007f80ac58cd000000000000000000000000000000000000000000000000000000007bffffffffffffffffffffffffffffffffffffffffffffffffffffffff1916827bffffffffffffffffffffffffffffffffffffffffffffffffffffffff1916148061043657507f5b5e139f000000000000000000000000000000000000000000000000000000007bffffffffffffffffffffffffffffffffffffffffffffffffffffffff1916827bffffffffffffffffffffffffffffffffffffffffffffffffffffffff1916145b80610446575061044582610ca7565b5b9050919050565b60606000805461045c906126e3565b80601f0160208091040260200160405190810160405280929190818152602001828054610488906126e3565b80156104d55780601f106104aa576101008083540402835291602001916104d5565b820191906000526020600020905b8154815290600101906020018083116104b857829003601f168201915b5050505050905090565b60006104ea82610d11565b610529576040517f08c379a0000000000000000000000000000000000000000000000000000000008152600401610520906123ed565b60405180910390fd5b6004600083815260200190815260200160002060009054906101000a900473ffffffffffffffffffffffffffffffffffffffff169050919050565b600061056f826107a1565b90508073ffffffffffffffffffffffffffffffffffffffff168373ffffffffffffffffffffffffffffffffffffffff1614156105e0576040517f08c379a00000000000000000000000000000000000000000000000000000000081526004016105d79061244d565b60405180910390fd5b8073ffffffffffffffffffffffffffffffffffffffff166105ff610d7d565b73ffffffffffffffffffffffffffffffffffffffff16148061062e575061062d81610628610d7d565b610c13565b5b61066d576040517f08c379a00000000000000000000000000000000000000000000000000000000081526004016106649061232d565b60405180910390fd5b6106778383610d85565b505050565b61068d610687610d7d565b82610e3e565b6106cc576040517f08c379a00000000000000000000000000000000000000000000000000000000081526004016106c39061246d565b60405180910390fd5b6106d7838383610f1c565b505050565b60006106e783610853565b8210610728576040517f08c379a000000000000000000000000000000000000000000000000000000000815260040161071f9061224d565b60405180910390fd5b600960008473ffffffffffffffffffffffffffffffffffffffff1673ffffffffffffffffffffffffffffffffffffffff168152602001908152602001600020600083815260200190815260200160002054905092915050565b61079c838383604051806020016040528060008152506109d9565b505050565b6000806002600084815260200190815260200160002060009054906101000a900473ffffffffffffffffffffffffffffffffffffffff169050600073ffffffffffffffffffffffffffffffffffffffff168173ffffffffffffffffffffffffffffffffffffffff16141561084a576040517f08c379a00000000000000000000000000000000000000000000000000000000081526004016108419061236d565b60405180910390fd5b80915050919050565b60008073ffffffffffffffffffffffffffffffffffffffff168273ffffffffffffffffffffffffffffffffffffffff1614156108c4576040517f08c379a00000000000000000000000000000000000000000000000000000000081526004016108bb9061234d565b60405180910390fd5b600360008373ffffffffffffffffffffffffffffffffffffffff1673ffffffffffffffffffffffffffffffffffffffff168152602001908152602001600020549050919050565b600860009054906101000a900473ffffffffffffffffffffffffffffffffffffffff1681565b606060018054610940906126e3565b80601f016020809104026020016040519081016040528092919081815260200182805461096c906126e3565b80156109b95780601f1061098e576101008083540402835291602001916109b9565b820191906000526020600020905b81548152906001019060200180831161099c57829003601f168201915b5050505050905090565b6109d56109ce610d7d565b8383611183565b5050565b6109ea6109e4610d7d565b83610e3e565b610a29576040517f08c379a0000000000000000000000000000000000000000000000000000000008152600401610a209061246d565b60405180910390fd5b610a35848484846112f0565b50505050565b6060610a4682610d11565b610a85576040517f08c379a0000000000000000000000000000000000000000000000000000000008152600401610a7c906123cd565b60405180910390fd5b6000600660008481526020019081526020016000208054610aa5906126e3565b80601f0160208091040260200160405190810160405280929190818152602001828054610ad1906126e3565b8015610b1e5780601f10610af357610100808354040283529160200191610b1e565b820191906000526020600020905b815481529060010190602001808311610b0157829003601f168201915b505050505090506000610b2f61134c565b9050600081511415610b45578192505050610b88565b600082511115610b7a578082604051602001610b62929190612185565b60405160208183030381529060405292505050610b88565b610b8384611363565b925050505b919050565b6000612710610b9c600761140a565b10610bdc576040517f08c379a0000000000000000000000000000000000000000000000000000000008152600401610bd39061242d565b60405180910390fd5b610be66007611418565b6000610bf2600761140a565b9050610bfe848261142e565b610c088184611608565b600191505092915050565b6000600560008473ffffffffffffffffffffffffffffffffffffffff1673ffffffffffffffffffffffffffffffffffffffff16815260200190815260200160002060008373ffffffffffffffffffffffffffffffffffffffff1673ffffffffffffffffffffffffffffffffffffffff16815260200190815260200160002060009054906101000a900460ff16905092915050565b60007f01ffc9a7000000000000000000000000000000000000000000000000000000007bffffffffffffffffffffffffffffffffffffffffffffffffffffffff1916827bffffffffffffffffffffffffffffffffffffffffffffffffffffffff1916149050919050565b60008073ffffffffffffffffffffffffffffffffffffffff166002600084815260200190815260200160002060009054906101000a900473ffffffffffffffffffffffffffffffffffffffff1673ffffffffffffffffffffffffffffffffffffffff1614159050919050565b600033905090565b816004600083815260200190815260200160002060006101000a81548173ffffffffffffffffffffffffffffffffffffffff021916908373ffffffffffffffffffffffffffffffffffffffff160217905550808273ffffffffffffffffffffffffffffffffffffffff16610df8836107a1565b73ffffffffffffffffffffffffffffffffffffffff167f8c5be1e5ebec7d5bd14f71427d1e84f3dd0314c0f7b2291e5b200ac8c7c3b92560405160405180910390a45050565b6000610e4982610d11565b610e88576040517f08c379a0000000000000000000000000000000000000000000000000000000008152600401610e7f9061230d565b60405180910390fd5b6000610e93836107a1565b90508073ffffffffffffffffffffffffffffffffffffffff168473ffffffffffffffffffffffffffffffffffffffff161480610ed55750610ed48185610c13565b5b80610f1357508373ffffffffffffffffffffffffffffffffffffffff16610efb846104df565b73ffffffffffffffffffffffffffffffffffffffff16145b91505092915050565b8273ffffffffffffffffffffffffffffffffffffffff16610f3c826107a1565b73ffffffffffffffffffffffffffffffffffffffff1614610f92576040517f08c379a0000000000000000000000000000000000000000000000000000000008152600401610f899061228d565b60405180910390fd5b600073ffffffffffffffffffffffffffffffffffffffff168273ffffffffffffffffffffffffffffffffffffffff161415611002576040517f08c379a0000000000000000000000000000000000000000000000000000000008152600401610ff9906122cd565b60405180910390fd5b61100d83838361167c565b611018600082610d85565b6001600360008573ffffffffffffffffffffffffffffffffffffffff1673ffffffffffffffffffffffffffffffffffffffff168152602001908152602001600020600082825461106891906125f9565b925050819055506001600360008473ffffffffffffffffffffffffffffffffffffffff1673ffffffffffffffffffffffffffffffffffffffff16815260200190815260200160002060008282546110bf9190612572565b92505081905550816002600083815260200190815260200160002060006101000a81548173ffffffffffffffffffffffffffffffffffffffff021916908373ffffffffffffffffffffffffffffffffffffffff160217905550808273ffffffffffffffffffffffffffffffffffffffff168473ffffffffffffffffffffffffffffffffffffffff167fddf252ad1be2c89b69c2b068fc378daa952ba7f163c4a11628f55a4df523b3ef60405160405180910390a461117e838383611681565b505050565b8173ffffffffffffffffffffffffffffffffffffffff168373ffffffffffffffffffffffffffffffffffffffff1614156111f2576040517f08c379a00000000000000000000000000000000000000000000000000000000081526004016111e9906122ed565b60405180910390fd5b80600560008573ffffffffffffffffffffffffffffffffffffffff1673ffffffffffffffffffffffffffffffffffffffff16815260200190815260200160002060008473ffffffffffffffffffffffffffffffffffffffff1673ffffffffffffffffffffffffffffffffffffffff16815260200190815260200160002060006101000a81548160ff0219169083151502179055508173ffffffffffffffffffffffffffffffffffffffff168373ffffffffffffffffffffffffffffffffffffffff167f17307eab39ab6107e8899845ad3d59bd9653f200f220920489ca2b5937696c31836040516112e39190612210565b60405180910390a3505050565b6112fb848484610f1c565b61130784848484611686565b611346576040517f08c379a000000000000000000000000000000000000000000000000000000000815260040161133d9061226d565b60405180910390fd5b50505050565b606060405180602001604052806000815250905090565b606061136e82610d11565b6113ad576040517f08c379a00000000000000000000000000000000000000000000000000000000081526004016113a49061240d565b60405180910390fd5b60006113b761134c565b905060008151116113d75760405180602001604052806000815250611402565b806113e18461181d565b6040516020016113f2929190612185565b6040516020818303038152906040525b915050919050565b600081600001549050919050565b6001816000016000828254019250508190555050565b600073ffffffffffffffffffffffffffffffffffffffff168273ffffffffffffffffffffffffffffffffffffffff16141561149e576040517f08c379a0000000000000000000000000000000000000000000000000000000008152600401611495906123ad565b60405180910390fd5b6114a781610d11565b156114e7576040517f08c379a00000000000000000000000000000000000000000000000000000000081526004016114de906122ad565b60405180910390fd5b6114f36000838361167c565b6001600360008473ffffffffffffffffffffffffffffffffffffffff1673ffffffffffffffffffffffffffffffffffffffff16815260200190815260200160002060008282546115439190612572565b92505081905550816002600083815260200190815260200160002060006101000a81548173ffffffffffffffffffffffffffffffffffffffff021916908373ffffffffffffffffffffffffffffffffffffffff160217905550808273ffffffffffffffffffffffffffffffffffffffff16600073ffffffffffffffffffffffffffffffffffffffff167fddf252ad1be2c89b69c2b068fc378daa952ba7f163c4a11628f55a4df523b3ef60405160405180910390a461160460008383611681565b5050565b61161182610d11565b611650576040517f08c379a00000000000000000000000000000000000000000000000000000000081526004016116479061238d565b60405180910390fd5b806006600084815260200190815260200160002090805190602001906116779291906119ed565b505050565b505050565b505050565b60006116a78473ffffffffffffffffffffffffffffffffffffffff166119ca565b15611810578373ffffffffffffffffffffffffffffffffffffffff1663150b7a026116d0610d7d565b8786866040518563ffffffff1660e01b81526004016116f294939291906121c4565b602060405180830381600087803b15801561170c57600080fd5b505af192505050801561173d57506040513d601f19601f8201168201806040525081019061173a9190611ded565b60015b6117c0573d806000811461176d576040519150601f19603f3d011682016040523d82523d6000602084013e611772565b606091505b506000815114156117b8576040517f08c379a00000000000000000000000000000000000000000000000000000000081526004016117af9061226d565b60405180910390fd5b805181602001fd5b63150b7a0260e01b7bffffffffffffffffffffffffffffffffffffffffffffffffffffffff1916817bffffffffffffffffffffffffffffffffffffffffffffffffffffffff191614915050611815565b600190505b949350505050565b60606000821415611865576040518060400160405280600181526020017f300000000000000000000000000000000000000000000000000000000000000081525090506119c5565b600082905060005b6000821461189757808061188090612746565b915050600a8261189091906125c8565b915061186d565b60008167ffffffffffffffff8111156118d9577f4e487b7100000000000000000000000000000000000000000000000000000000600052604160045260246000fd5b6040519080825280601f01601f19166020018201604052801561190b5781602001600182028036833780820191505090505b5090505b600085146119be5760018261192491906125f9565b9150600a85611933919061278f565b603061193f9190612572565b60f81b81838151811061197b577f4e487b7100000000000000000000000000000000000000000000000000000000600052603260045260246000fd5b60200101907effffffffffffffffffffffffffffffffffffffffffffffffffffffffffffff1916908160001a905350600a856119b791906125c8565b945061190f565b8093505050505b919050565b6000808273ffffffffffffffffffffffffffffffffffffffff163b119050919050565b8280546119f9906126e3565b90600052602060002090601f016020900481019282611a1b5760008555611a62565b82601f10611a3457805160ff1916838001178555611a62565b82800160010185558215611a62579182015b82811115611a61578251825591602001919060010190611a46565b5b509050611a6f9190611a73565b5090565b5b80821115611a8c576000816000905550600101611a74565b5090565b6000611aa3611a9e846124cd565b6124a8565b905082815260208101848484011115611abb57600080fd5b611ac68482856126a1565b509392505050565b6000611ae1611adc846124fe565b6124a8565b905082815260208101848484011115611af957600080fd5b611b048482856126a1565b509392505050565b600081359050611b1b81612d83565b92915050565b600081359050611b3081612d9a565b92915050565b600081359050611b4581612db1565b92915050565b600081519050611b5a81612db1565b92915050565b600082601f830112611b7157600080fd5b8135611b81848260208601611a90565b91505092915050565b600082601f830112611b9b57600080fd5b8135611bab848260208601611ace565b91505092915050565b600081359050611bc381612dc8565b92915050565b600060208284031215611bdb57600080fd5b6000611be984828501611b0c565b91505092915050565b60008060408385031215611c0557600080fd5b6000611c1385828601611b0c565b9250506020611c2485828601611b0c565b9150509250929050565b600080600060608486031215611c4357600080fd5b6000611c5186828701611b0c565b9350506020611c6286828701611b0c565b9250506040611c7386828701611bb4565b9150509250925092565b60008060008060808587031215611c9357600080fd5b6000611ca187828801611b0c565b9450506020611cb287828801611b0c565b9350506040611cc387828801611bb4565b925050606085013567ffffffffffffffff811115611ce057600080fd5b611cec87828801611b60565b91505092959194509250565b60008060408385031215611d0b57600080fd5b6000611d1985828601611b0c565b9250506020611d2a85828601611b21565b9150509250929050565b60008060408385031215611d4757600080fd5b6000611d5585828601611b0c565b925050602083013567ffffffffffffffff811115611d7257600080fd5b611d7e85828601611b8a565b9150509250929050565b60008060408385031215611d9b57600080fd5b6000611da985828601611b0c565b9250506020611dba85828601611bb4565b9150509250929050565b600060208284031215611dd657600080fd5b6000611de484828501611b36565b91505092915050565b600060208284031215611dff57600080fd5b6000611e0d84828501611b4b565b91505092915050565b600060208284031215611e2857600080fd5b6000611e3684828501611bb4565b91505092915050565b611e488161262d565b82525050565b611e578161263f565b82525050565b6000611e688261252f565b611e728185612545565b9350611e828185602086016126b0565b611e8b8161287c565b840191505092915050565b6000611ea18261253a565b611eab8185612556565b9350611ebb8185602086016126b0565b611ec48161287c565b840191505092915050565b6000611eda8261253a565b611ee48185612567565b9350611ef48185602086016126b0565b80840191505092915050565b6000611f0d602b83612556565b9150611f188261288d565b604082019050919050565b6000611f30603283612556565b9150611f3b826128dc565b604082019050919050565b6000611f53602583612556565b9150611f5e8261292b565b604082019050919050565b6000611f76601c83612556565b9150611f818261297a565b602082019050919050565b6000611f99602483612556565b9150611fa4826129a3565b604082019050919050565b6000611fbc601983612556565b9150611fc7826129f2565b602082019050919050565b6000611fdf602c83612556565b9150611fea82612a1b565b604082019050919050565b6000612002603883612556565b915061200d82612a6a565b604082019050919050565b6000612025602a83612556565b915061203082612ab9565b604082019050919050565b6000612048602983612556565b915061205382612b08565b604082019050919050565b600061206b602e83612556565b915061207682612b57565b604082019050919050565b600061208e602083612556565b915061209982612ba6565b602082019050919050565b60006120b1603183612556565b91506120bc82612bcf565b604082019050919050565b60006120d4602c83612556565b91506120df82612c1e565b604082019050919050565b60006120f7602f83612556565b915061210282612c6d565b604082019050919050565b600061211a601a83612556565b915061212582612cbc565b602082019050919050565b600061213d602183612556565b915061214882612ce5565b604082019050919050565b6000612160603183612556565b915061216b82612d34565b604082019050919050565b61217f81612697565b82525050565b60006121918285611ecf565b915061219d8284611ecf565b91508190509392505050565b60006020820190506121be6000830184611e3f565b92915050565b60006080820190506121d96000830187611e3f565b6121e66020830186611e3f565b6121f36040830185612176565b81810360608301526122058184611e5d565b905095945050505050565b60006020820190506122256000830184611e4e565b92915050565b600060208201905081810360008301526122458184611e96565b905092915050565b6000602082019050818103600083015261226681611f00565b9050919050565b6000602082019050818103600083015261228681611f23565b9050919050565b600060208201905081810360008301526122a681611f46565b9050919050565b600060208201905081810360008301526122c681611f69565b9050919050565b600060208201905081810360008301526122e681611f8c565b9050919050565b6000602082019050818103600083015261230681611faf565b9050919050565b6000602082019050818103600083015261232681611fd2565b9050919050565b6000602082019050818103600083015261234681611ff5565b9050919050565b6000602082019050818103600083015261236681612018565b9050919050565b600060208201905081810360008301526123868161203b565b9050919050565b600060208201905081810360008301526123a68161205e565b9050919050565b600060208201905081810360008301526123c681612081565b9050919050565b600060208201905081810360008301526123e6816120a4565b9050919050565b60006020820190508181036000830152612406816120c7565b9050919050565b60006020820190508181036000830152612426816120ea565b9050919050565b600060208201905081810360008301526124468161210d565b9050919050565b6000602082019050818103600083015261246681612130565b9050919050565b6000602082019050818103600083015261248681612153565b9050919050565b60006020820190506124a26000830184612176565b92915050565b60006124b26124c3565b90506124be8282612715565b919050565b6000604051905090565b600067ffffffffffffffff8211156124e8576124e761284d565b5b6124f18261287c565b9050602081019050919050565b600067ffffffffffffffff8211156125195761251861284d565b5b6125228261287c565b9050602081019050919050565b600081519050919050565b600081519050919050565b600082825260208201905092915050565b600082825260208201905092915050565b600081905092915050565b600061257d82612697565b915061258883612697565b9250827fffffffffffffffffffffffffffffffffffffffffffffffffffffffffffffffff038211156125bd576125bc6127c0565b5b828201905092915050565b60006125d382612697565b91506125de83612697565b9250826125ee576125ed6127ef565b5b828204905092915050565b600061260482612697565b915061260f83612697565b925082821015612622576126216127c0565b5b828203905092915050565b600061263882612677565b9050919050565b60008115159050919050565b60007fffffffff0000000000000000000000000000000000000000000000000000000082169050919050565b600073ffffffffffffffffffffffffffffffffffffffff82169050919050565b6000819050919050565b82818337600083830152505050565b60005b838110156126ce5780820151818401526020810190506126b3565b838111156126dd576000848401525b50505050565b600060028204905060018216806126fb57607f821691505b6020821081141561270f5761270e61281e565b5b50919050565b61271e8261287c565b810181811067ffffffffffffffff8211171561273d5761273c61284d565b5b80604052505050565b600061275182612697565b91507fffffffffffffffffffffffffffffffffffffffffffffffffffffffffffffffff821415612784576127836127c0565b5b600182019050919050565b600061279a82612697565b91506127a583612697565b9250826127b5576127b46127ef565b5b828206905092915050565b7f4e487b7100000000000000000000000000000000000000000000000000000000600052601160045260246000fd5b7f4e487b7100000000000000000000000000000000000000000000000000000000600052601260045260246000fd5b7f4e487b7100000000000000000000000000000000000000000000000000000000600052602260045260246000fd5b7f4e487b7100000000000000000000000000000000000000000000000000000000600052604160045260246000fd5b6000601f19601f8301169050919050565b7f455243373231456e756d657261626c653a206f776e657220696e646578206f7560008201527f74206f6620626f756e6473000000000000000000000000000000000000000000602082015250565b7f4552433732313a207472616e7366657220746f206e6f6e20455243373231526560008201527f63656976657220696d706c656d656e7465720000000000000000000000000000602082015250565b7f4552433732313a207472616e736665722066726f6d20696e636f72726563742060008201527f6f776e6572000000000000000000000000000000000000000000000000000000602082015250565b7f4552433732313a20746f6b656e20616c7265616479206d696e74656400000000600082015250565b7f4552433732313a207472616e7366657220746f20746865207a65726f2061646460008201527f7265737300000000000000000000000000000000000000000000000000000000602082015250565b7f4552433732313a20617070726f766520746f2063616c6c657200000000000000600082015250565b7f4552433732313a206f70657261746f7220717565727920666f72206e6f6e657860008201527f697374656e7420746f6b656e0000000000000000000000000000000000000000602082015250565b7f4552433732313a20617070726f76652063616c6c6572206973206e6f74206f7760008201527f6e6572206e6f7220617070726f76656420666f7220616c6c0000000000000000602082015250565b7f4552433732313a2062616c616e636520717565727920666f7220746865207a6560008201527f726f206164647265737300000000000000000000000000000000000000000000602082015250565b7f4552433732313a206f776e657220717565727920666f72206e6f6e657869737460008201527f656e7420746f6b656e0000000000000000000000000000000000000000000000602082015250565b7f45524337323155524953746f726167653a2055524920736574206f66206e6f6e60008201527f6578697374656e7420746f6b656e000000000000000000000000000000000000602082015250565b7f4552433732313a206d696e7420746f20746865207a65726f2061646472657373600082015250565b7f45524337323155524953746f726167653a2055524920717565727920666f722060008201527f6e6f6e6578697374656e7420746f6b656e000000000000000000000000000000602082015250565b7f4552433732313a20617070726f76656420717565727920666f72206e6f6e657860008201527f697374656e7420746f6b656e0000000000000000000000000000000000000000602082015250565b7f4552433732314d657461646174613a2055524920717565727920666f72206e6f60008201527f6e6578697374656e7420746f6b656e0000000000000000000000000000000000602082015250565b7f4e6f204d6f7265204e4654732063616e206265206d696e746564000000000000600082015250565b7f4552433732313a20617070726f76616c20746f2063757272656e74206f776e6560008201527f7200000000000000000000000000000000000000000000000000000000000000602082015250565b7f4552433732313a207472616e736665722063616c6c6572206973206e6f74206f60008201527f776e6572206e6f7220617070726f766564000000000000000000000000000000602082015250565b612d8c8161262d565b8114612d9757600080fd5b50565b612da38161263f565b8114612dae57600080fd5b50565b612dba8161264b565b8114612dc557600080fd5b50565b612dd181612697565b8114612ddc57600080fd5b5056fea2646970667358221220f7461bb7e5048efedfa4c10a184754a69ac547f5218cc63b380229249159701f64736f6c63430008040033",
  "linkReferences": {},
  "deployedLinkReferences": {}
}