{
  "_format": "hh-sol-artifact-1",
  "contractName": "MintRewardNFT",
  "sourceName": "contracts/MintRewardNFT.sol",
  "abi": [
    {
      "inputs": [],
      "stateMutability": "nonpayable",
      "type": "constructor"
    },
    {
      "anonymous": false,
      "inputs": [
        {
          "indexed": true,
          "internalType": "address",
          "name": "owner",
          "type": "address"
        },
        {
          "indexed": true,
          "internalType": "address",
          "name": "approved",
          "type": "address"
        },
        {
          "indexed": true,
          "internalType": "uint256",
          "name": "tokenId",
          "type": "uint256"
        }
      ],
      "name": "Approval",
      "type": "event"
    },
    {
      "anonymous": false,
      "inputs": [
        {
          "indexed": true,
          "internalType": "address",
          "name": "owner",
          "type": "address"
        },
        {
          "indexed": true,
          "internalType": "address",
          "name": "operator",
          "type": "address"
        },
        {
          "indexed": false,
          "internalType": "bool",
          "name": "approved",
          "type": "bool"
        }
      ],
      "name": "ApprovalForAll",
      "type": "event"
    },
    {
      "anonymous": false,
      "inputs": [
        {
          "indexed": true,
          "internalType": "address",
          "name": "from",
          "type": "address"
        },
        {
          "indexed": true,
          "internalType": "address",
          "name": "to",
          "type": "address"
        },
        {
          "indexed": true,
          "internalType": "uint256",
          "name": "tokenId",
          "type": "uint256"
        }
      ],
      "name": "Transfer",
      "type": "event"
    },
    {
      "inputs": [
        {
          "internalType": "address",
          "name": "to",
          "type": "address"
        },
        {
          "internalType": "uint256",
          "name": "tokenId",
          "type": "uint256"
        }
      ],
      "name": "approve",
      "outputs": [],
      "stateMutability": "nonpayable",
      "type": "function"
    },
    {
      "inputs": [
        {
          "internalType": "address",
          "name": "owner",
          "type": "address"
        }
      ],
      "name": "balanceOf",
      "outputs": [
        {
          "internalType": "uint256",
          "name": "",
          "type": "uint256"
        }
      ],
      "stateMutability": "view",
      "type": "function"
    },
    {
      "inputs": [],
      "name": "createToken",
      "outputs": [
        {
          "internalType": "uint256",
          "name": "",
          "type": "uint256"
        }
      ],
      "stateMutability": "nonpayable",
      "type": "function"
    },
    {
      "inputs": [
        {
          "internalType": "uint256",
          "name": "tokenId",
          "type": "uint256"
        }
      ],
      "name": "getApproved",
      "outputs": [
        {
          "internalType": "address",
          "name": "",
          "type": "address"
        }
      ],
      "stateMutability": "view",
      "type": "function"
    },
    {
      "inputs": [
        {
          "internalType": "address",
          "name": "owner",
          "type": "address"
        },
        {
          "internalType": "address",
          "name": "operator",
          "type": "address"
        }
      ],
      "name": "isApprovedForAll",
      "outputs": [
        {
          "internalType": "bool",
          "name": "",
          "type": "bool"
        }
      ],
      "stateMutability": "view",
      "type": "function"
    },
    {
      "inputs": [],
      "name": "name",
      "outputs": [
        {
          "internalType": "string",
          "name": "",
          "type": "string"
        }
      ],
      "stateMutability": "view",
      "type": "function"
    },
    {
      "inputs": [],
      "name": "owner",
      "outputs": [
        {
          "internalType": "address",
          "name": "",
          "type": "address"
        }
      ],
      "stateMutability": "view",
      "type": "function"
    },
    {
      "inputs": [
        {
          "internalType": "uint256",
          "name": "tokenId",
          "type": "uint256"
        }
      ],
      "name": "ownerOf",
      "outputs": [
        {
          "internalType": "address",
          "name": "",
          "type": "address"
        }
      ],
      "stateMutability": "view",
      "type": "function"
    },
    {
      "inputs": [
        {
          "internalType": "address",
          "name": "from",
          "type": "address"
        },
        {
          "internalType": "address",
          "name": "to",
          "type": "address"
        },
        {
          "internalType": "uint256",
          "name": "tokenId",
          "type": "uint256"
        }
      ],
      "name": "safeTransferFrom",
      "outputs": [],
      "stateMutability": "nonpayable",
      "type": "function"
    },
    {
      "inputs": [
        {
          "internalType": "address",
          "name": "from",
          "type": "address"
        },
        {
          "internalType": "address",
          "name": "to",
          "type": "address"
        },
        {
          "internalType": "uint256",
          "name": "tokenId",
          "type": "uint256"
        },
        {
          "internalType": "bytes",
          "name": "_data",
          "type": "bytes"
        }
      ],
      "name": "safeTransferFrom",
      "outputs": [],
      "stateMutability": "nonpayable",
      "type": "function"
    },
    {
      "inputs": [
        {
          "internalType": "address",
          "name": "operator",
          "type": "address"
        },
        {
          "internalType": "bool",
          "name": "approved",
          "type": "bool"
        }
      ],
      "name": "setApprovalForAll",
      "outputs": [],
      "stateMutability": "nonpayable",
      "type": "function"
    },
    {
      "inputs": [
        {
          "internalType": "bytes4",
          "name": "interfaceId",
          "type": "bytes4"
        }
      ],
      "name": "supportsInterface",
      "outputs": [
        {
          "internalType": "bool",
          "name": "",
          "type": "bool"
        }
      ],
      "stateMutability": "view",
      "type": "function"
    },
    {
      "inputs": [],
      "name": "symbol",
      "outputs": [
        {
          "internalType": "string",
          "name": "",
          "type": "string"
        }
      ],
      "stateMutability": "view",
      "type": "function"
    },
    {
      "inputs": [
        {
          "internalType": "uint256",
          "name": "tokenId",
          "type": "uint256"
        }
      ],
      "name": "tokenURI",
      "outputs": [
        {
          "internalType": "string",
          "name": "",
          "type": "string"
        }
      ],
      "stateMutability": "view",
      "type": "function"
    },
    {
      "inputs": [
        {
          "internalType": "address",
          "name": "from",
          "type": "address"
        },
        {
          "internalType": "address",
          "name": "to",
          "type": "address"
        },
        {
          "internalType": "uint256",
          "name": "tokenId",
          "type": "uint256"
        }
      ],
      "name": "transferFrom",
      "outputs": [],
      "stateMutability": "nonpayable",
      "type": "function"
    }
  ],
  "bytecode": "0x60806040523480156200001157600080fd5b506040518060400160405280601081526020017f42696742756c6c47616d6572734e4654000000000000000000000000000000008152506040518060400160405280600381526020017f4242470000000000000000000000000000000000000000000000000000000000815250816000908051906020019062000096929190620000f9565b508060019080519060200190620000af929190620000f9565b50505033600860006101000a81548173ffffffffffffffffffffffffffffffffffffffff021916908373ffffffffffffffffffffffffffffffffffffffff1602179055506200020e565b8280546200010790620001a9565b90600052602060002090601f0160209004810192826200012b576000855562000177565b82601f106200014657805160ff191683800117855562000177565b8280016001018555821562000177579182015b828111156200017657825182559160200191906001019062000159565b5b5090506200018691906200018a565b5090565b5b80821115620001a55760008160009055506001016200018b565b5090565b60006002820490506001821680620001c257607f821691505b60208210811415620001d957620001d8620001df565b5b50919050565b7f4e487b7100000000000000000000000000000000000000000000000000000000600052602260045260246000fd5b612c1e806200021e6000396000f3fe608060405234801561001057600080fd5b50600436106100f55760003560e01c806370a0823111610097578063a22cb46511610066578063a22cb46514610286578063b88d4fde146102a2578063c87b56dd146102be578063e985e9c5146102ee576100f5565b806370a08231146101fc5780638da5cb5b1461022c57806395d89b411461024a5780639cbf9e3614610268576100f5565b8063095ea7b3116100d3578063095ea7b31461017857806323b872dd1461019457806342842e0e146101b05780636352211e146101cc576100f5565b806301ffc9a7146100fa57806306fdde031461012a578063081812fc14610148575b600080fd5b610114600480360381019061010f9190611c30565b61031e565b6040516101219190612059565b60405180910390f35b610132610400565b60405161013f9190612074565b60405180910390f35b610162600480360381019061015d9190611c82565b610492565b60405161016f9190611ff2565b60405180910390f35b610192600480360381019061018d9190611bf4565b610517565b005b6101ae60048036038101906101a99190611aee565b61062f565b005b6101ca60048036038101906101c59190611aee565b61068f565b005b6101e660048036038101906101e19190611c82565b6106af565b6040516101f39190611ff2565b60405180910390f35b61021660048036038101906102119190611a89565b610761565b60405161022391906122b6565b60405180910390f35b610234610819565b6040516102419190611ff2565b60405180910390f35b61025261083f565b60405161025f9190612074565b60405180910390f35b6102706108d1565b60405161027d91906122b6565b60405180910390f35b6102a0600480360381019061029b9190611bb8565b610971565b005b6102bc60048036038101906102b79190611b3d565b610987565b005b6102d860048036038101906102d39190611c82565b6109e9565b6040516102e59190612074565b60405180910390f35b61030860048036038101906103039190611ab2565b610b3b565b6040516103159190612059565b60405180910390f35b60007f80ac58cd000000000000000000000000000000000000000000000000000000007bffffffffffffffffffffffffffffffffffffffffffffffffffffffff1916827bffffffffffffffffffffffffffffffffffffffffffffffffffffffff191614806103e957507f5b5e139f000000000000000000000000000000000000000000000000000000007bffffffffffffffffffffffffffffffffffffffffffffffffffffffff1916827bffffffffffffffffffffffffffffffffffffffffffffffffffffffff1916145b806103f957506103f882610bcf565b5b9050919050565b60606000805461040f906124db565b80601f016020809104026020016040519081016040528092919081815260200182805461043b906124db565b80156104885780601f1061045d57610100808354040283529160200191610488565b820191906000526020600020905b81548152906001019060200180831161046b57829003601f168201915b5050505050905090565b600061049d82610c39565b6104dc576040517f08c379a00000000000000000000000000000000000000000000000000000000081526004016104d390612216565b60405180910390fd5b6004600083815260200190815260200160002060009054906101000a900473ffffffffffffffffffffffffffffffffffffffff169050919050565b6000610522826106af565b90508073ffffffffffffffffffffffffffffffffffffffff168373ffffffffffffffffffffffffffffffffffffffff161415610593576040517f08c379a000000000000000000000000000000000000000000000000000000000815260040161058a90612276565b60405180910390fd5b8073ffffffffffffffffffffffffffffffffffffffff166105b2610ca5565b73ffffffffffffffffffffffffffffffffffffffff1614806105e157506105e0816105db610ca5565b610b3b565b5b610620576040517f08c379a000000000000000000000000000000000000000000000000000000000815260040161061790612156565b60405180910390fd5b61062a8383610cad565b505050565b61064061063a610ca5565b82610d66565b61067f576040517f08c379a000000000000000000000000000000000000000000000000000000000815260040161067690612296565b60405180910390fd5b61068a838383610e44565b505050565b6106aa83838360405180602001604052806000815250610987565b505050565b6000806002600084815260200190815260200160002060009054906101000a900473ffffffffffffffffffffffffffffffffffffffff169050600073ffffffffffffffffffffffffffffffffffffffff168173ffffffffffffffffffffffffffffffffffffffff161415610758576040517f08c379a000000000000000000000000000000000000000000000000000000000815260040161074f90612196565b60405180910390fd5b80915050919050565b60008073ffffffffffffffffffffffffffffffffffffffff168273ffffffffffffffffffffffffffffffffffffffff1614156107d2576040517f08c379a00000000000000000000000000000000000000000000000000000000081526004016107c990612176565b60405180910390fd5b600360008373ffffffffffffffffffffffffffffffffffffffff1673ffffffffffffffffffffffffffffffffffffffff168152602001908152602001600020549050919050565b600860009054906101000a900473ffffffffffffffffffffffffffffffffffffffff1681565b60606001805461084e906124db565b80601f016020809104026020016040519081016040528092919081815260200182805461087a906124db565b80156108c75780601f1061089c576101008083540402835291602001916108c7565b820191906000526020600020905b8154815290600101906020018083116108aa57829003601f168201915b5050505050905090565b60006127106108e060076110ab565b10610920576040517f08c379a000000000000000000000000000000000000000000000000000000000815260040161091790612256565b60405180910390fd5b61092a60076110b9565b600061093660076110ab565b90506000604051806080016040528060608152602001612b8960609139905061095f33836110cf565b61096982826112a9565b819250505090565b61098361097c610ca5565b838361131d565b5050565b610998610992610ca5565b83610d66565b6109d7576040517f08c379a00000000000000000000000000000000000000000000000000000000081526004016109ce90612296565b60405180910390fd5b6109e38484848461148a565b50505050565b60606109f482610c39565b610a33576040517f08c379a0000000000000000000000000000000000000000000000000000000008152600401610a2a906121f6565b60405180910390fd5b6000600660008481526020019081526020016000208054610a53906124db565b80601f0160208091040260200160405190810160405280929190818152602001828054610a7f906124db565b8015610acc5780601f10610aa157610100808354040283529160200191610acc565b820191906000526020600020905b815481529060010190602001808311610aaf57829003601f168201915b505050505090506000610add6114e6565b9050600081511415610af3578192505050610b36565b600082511115610b28578082604051602001610b10929190611fce565b60405160208183030381529060405292505050610b36565b610b31846114fd565b925050505b919050565b6000600560008473ffffffffffffffffffffffffffffffffffffffff1673ffffffffffffffffffffffffffffffffffffffff16815260200190815260200160002060008373ffffffffffffffffffffffffffffffffffffffff1673ffffffffffffffffffffffffffffffffffffffff16815260200190815260200160002060009054906101000a900460ff16905092915050565b60007f01ffc9a7000000000000000000000000000000000000000000000000000000007bffffffffffffffffffffffffffffffffffffffffffffffffffffffff1916827bffffffffffffffffffffffffffffffffffffffffffffffffffffffff1916149050919050565b60008073ffffffffffffffffffffffffffffffffffffffff166002600084815260200190815260200160002060009054906101000a900473ffffffffffffffffffffffffffffffffffffffff1673ffffffffffffffffffffffffffffffffffffffff1614159050919050565b600033905090565b816004600083815260200190815260200160002060006101000a81548173ffffffffffffffffffffffffffffffffffffffff021916908373ffffffffffffffffffffffffffffffffffffffff160217905550808273ffffffffffffffffffffffffffffffffffffffff16610d20836106af565b73ffffffffffffffffffffffffffffffffffffffff167f8c5be1e5ebec7d5bd14f71427d1e84f3dd0314c0f7b2291e5b200ac8c7c3b92560405160405180910390a45050565b6000610d7182610c39565b610db0576040517f08c379a0000000000000000000000000000000000000000000000000000000008152600401610da790612136565b60405180910390fd5b6000610dbb836106af565b90508073ffffffffffffffffffffffffffffffffffffffff168473ffffffffffffffffffffffffffffffffffffffff161480610dfd5750610dfc8185610b3b565b5b80610e3b57508373ffffffffffffffffffffffffffffffffffffffff16610e2384610492565b73ffffffffffffffffffffffffffffffffffffffff16145b91505092915050565b8273ffffffffffffffffffffffffffffffffffffffff16610e64826106af565b73ffffffffffffffffffffffffffffffffffffffff1614610eba576040517f08c379a0000000000000000000000000000000000000000000000000000000008152600401610eb1906120b6565b60405180910390fd5b600073ffffffffffffffffffffffffffffffffffffffff168273ffffffffffffffffffffffffffffffffffffffff161415610f2a576040517f08c379a0000000000000000000000000000000000000000000000000000000008152600401610f21906120f6565b60405180910390fd5b610f358383836115a4565b610f40600082610cad565b6001600360008573ffffffffffffffffffffffffffffffffffffffff1673ffffffffffffffffffffffffffffffffffffffff1681526020019081526020016000206000828254610f9091906123f1565b925050819055506001600360008473ffffffffffffffffffffffffffffffffffffffff1673ffffffffffffffffffffffffffffffffffffffff1681526020019081526020016000206000828254610fe7919061236a565b92505081905550816002600083815260200190815260200160002060006101000a81548173ffffffffffffffffffffffffffffffffffffffff021916908373ffffffffffffffffffffffffffffffffffffffff160217905550808273ffffffffffffffffffffffffffffffffffffffff168473ffffffffffffffffffffffffffffffffffffffff167fddf252ad1be2c89b69c2b068fc378daa952ba7f163c4a11628f55a4df523b3ef60405160405180910390a46110a68383836115a9565b505050565b600081600001549050919050565b6001816000016000828254019250508190555050565b600073ffffffffffffffffffffffffffffffffffffffff168273ffffffffffffffffffffffffffffffffffffffff16141561113f576040517f08c379a0000000000000000000000000000000000000000000000000000000008152600401611136906121d6565b60405180910390fd5b61114881610c39565b15611188576040517f08c379a000000000000000000000000000000000000000000000000000000000815260040161117f906120d6565b60405180910390fd5b611194600083836115a4565b6001600360008473ffffffffffffffffffffffffffffffffffffffff1673ffffffffffffffffffffffffffffffffffffffff16815260200190815260200160002060008282546111e4919061236a565b92505081905550816002600083815260200190815260200160002060006101000a81548173ffffffffffffffffffffffffffffffffffffffff021916908373ffffffffffffffffffffffffffffffffffffffff160217905550808273ffffffffffffffffffffffffffffffffffffffff16600073ffffffffffffffffffffffffffffffffffffffff167fddf252ad1be2c89b69c2b068fc378daa952ba7f163c4a11628f55a4df523b3ef60405160405180910390a46112a5600083836115a9565b5050565b6112b282610c39565b6112f1576040517f08c379a00000000000000000000000000000000000000000000000000000000081526004016112e8906121b6565b60405180910390fd5b80600660008481526020019081526020016000209080519060200190611318929190611915565b505050565b8173ffffffffffffffffffffffffffffffffffffffff168373ffffffffffffffffffffffffffffffffffffffff16141561138c576040517f08c379a000000000000000000000000000000000000000000000000000000000815260040161138390612116565b60405180910390fd5b80600560008573ffffffffffffffffffffffffffffffffffffffff1673ffffffffffffffffffffffffffffffffffffffff16815260200190815260200160002060008473ffffffffffffffffffffffffffffffffffffffff1673ffffffffffffffffffffffffffffffffffffffff16815260200190815260200160002060006101000a81548160ff0219169083151502179055508173ffffffffffffffffffffffffffffffffffffffff168373ffffffffffffffffffffffffffffffffffffffff167f17307eab39ab6107e8899845ad3d59bd9653f200f220920489ca2b5937696c318360405161147d9190612059565b60405180910390a3505050565b611495848484610e44565b6114a1848484846115ae565b6114e0576040517f08c379a00000000000000000000000000000000000000000000000000000000081526004016114d790612096565b60405180910390fd5b50505050565b606060405180602001604052806000815250905090565b606061150882610c39565b611547576040517f08c379a000000000000000000000000000000000000000000000000000000000815260040161153e90612236565b60405180910390fd5b60006115516114e6565b90506000815111611571576040518060200160405280600081525061159c565b8061157b84611745565b60405160200161158c929190611fce565b6040516020818303038152906040525b915050919050565b505050565b505050565b60006115cf8473ffffffffffffffffffffffffffffffffffffffff166118f2565b15611738578373ffffffffffffffffffffffffffffffffffffffff1663150b7a026115f8610ca5565b8786866040518563ffffffff1660e01b815260040161161a949392919061200d565b602060405180830381600087803b15801561163457600080fd5b505af192505050801561166557506040513d601f19601f820116820180604052508101906116629190611c59565b60015b6116e8573d8060008114611695576040519150601f19603f3d011682016040523d82523d6000602084013e61169a565b606091505b506000815114156116e0576040517f08c379a00000000000000000000000000000000000000000000000000000000081526004016116d790612096565b60405180910390fd5b805181602001fd5b63150b7a0260e01b7bffffffffffffffffffffffffffffffffffffffffffffffffffffffff1916817bffffffffffffffffffffffffffffffffffffffffffffffffffffffff19161491505061173d565b600190505b949350505050565b6060600082141561178d576040518060400160405280600181526020017f300000000000000000000000000000000000000000000000000000000000000081525090506118ed565b600082905060005b600082146117bf5780806117a89061253e565b915050600a826117b891906123c0565b9150611795565b60008167ffffffffffffffff811115611801577f4e487b7100000000000000000000000000000000000000000000000000000000600052604160045260246000fd5b6040519080825280601f01601f1916602001820160405280156118335781602001600182028036833780820191505090505b5090505b600085146118e65760018261184c91906123f1565b9150600a8561185b9190612587565b6030611867919061236a565b60f81b8183815181106118a3577f4e487b7100000000000000000000000000000000000000000000000000000000600052603260045260246000fd5b60200101907effffffffffffffffffffffffffffffffffffffffffffffffffffffffffffff1916908160001a905350600a856118df91906123c0565b9450611837565b8093505050505b919050565b6000808273ffffffffffffffffffffffffffffffffffffffff163b119050919050565b828054611921906124db565b90600052602060002090601f016020900481019282611943576000855561198a565b82601f1061195c57805160ff191683800117855561198a565b8280016001018555821561198a579182015b8281111561198957825182559160200191906001019061196e565b5b509050611997919061199b565b5090565b5b808211156119b457600081600090555060010161199c565b5090565b60006119cb6119c6846122f6565b6122d1565b9050828152602081018484840111156119e357600080fd5b6119ee848285612499565b509392505050565b600081359050611a0581612b2c565b92915050565b600081359050611a1a81612b43565b92915050565b600081359050611a2f81612b5a565b92915050565b600081519050611a4481612b5a565b92915050565b600082601f830112611a5b57600080fd5b8135611a6b8482602086016119b8565b91505092915050565b600081359050611a8381612b71565b92915050565b600060208284031215611a9b57600080fd5b6000611aa9848285016119f6565b91505092915050565b60008060408385031215611ac557600080fd5b6000611ad3858286016119f6565b9250506020611ae4858286016119f6565b9150509250929050565b600080600060608486031215611b0357600080fd5b6000611b11868287016119f6565b9350506020611b22868287016119f6565b9250506040611b3386828701611a74565b9150509250925092565b60008060008060808587031215611b5357600080fd5b6000611b61878288016119f6565b9450506020611b72878288016119f6565b9350506040611b8387828801611a74565b925050606085013567ffffffffffffffff811115611ba057600080fd5b611bac87828801611a4a565b91505092959194509250565b60008060408385031215611bcb57600080fd5b6000611bd9858286016119f6565b9250506020611bea85828601611a0b565b9150509250929050565b60008060408385031215611c0757600080fd5b6000611c15858286016119f6565b9250506020611c2685828601611a74565b9150509250929050565b600060208284031215611c4257600080fd5b6000611c5084828501611a20565b91505092915050565b600060208284031215611c6b57600080fd5b6000611c7984828501611a35565b91505092915050565b600060208284031215611c9457600080fd5b6000611ca284828501611a74565b91505092915050565b611cb481612425565b82525050565b611cc381612437565b82525050565b6000611cd482612327565b611cde818561233d565b9350611cee8185602086016124a8565b611cf781612674565b840191505092915050565b6000611d0d82612332565b611d17818561234e565b9350611d278185602086016124a8565b611d3081612674565b840191505092915050565b6000611d4682612332565b611d50818561235f565b9350611d608185602086016124a8565b80840191505092915050565b6000611d7960328361234e565b9150611d8482612685565b604082019050919050565b6000611d9c60258361234e565b9150611da7826126d4565b604082019050919050565b6000611dbf601c8361234e565b9150611dca82612723565b602082019050919050565b6000611de260248361234e565b9150611ded8261274c565b604082019050919050565b6000611e0560198361234e565b9150611e108261279b565b602082019050919050565b6000611e28602c8361234e565b9150611e33826127c4565b604082019050919050565b6000611e4b60388361234e565b9150611e5682612813565b604082019050919050565b6000611e6e602a8361234e565b9150611e7982612862565b604082019050919050565b6000611e9160298361234e565b9150611e9c826128b1565b604082019050919050565b6000611eb4602e8361234e565b9150611ebf82612900565b604082019050919050565b6000611ed760208361234e565b9150611ee28261294f565b602082019050919050565b6000611efa60318361234e565b9150611f0582612978565b604082019050919050565b6000611f1d602c8361234e565b9150611f28826129c7565b604082019050919050565b6000611f40602f8361234e565b9150611f4b82612a16565b604082019050919050565b6000611f63601a8361234e565b9150611f6e82612a65565b602082019050919050565b6000611f8660218361234e565b9150611f9182612a8e565b604082019050919050565b6000611fa960318361234e565b9150611fb482612add565b604082019050919050565b611fc88161248f565b82525050565b6000611fda8285611d3b565b9150611fe68284611d3b565b91508190509392505050565b60006020820190506120076000830184611cab565b92915050565b60006080820190506120226000830187611cab565b61202f6020830186611cab565b61203c6040830185611fbf565b818103606083015261204e8184611cc9565b905095945050505050565b600060208201905061206e6000830184611cba565b92915050565b6000602082019050818103600083015261208e8184611d02565b905092915050565b600060208201905081810360008301526120af81611d6c565b9050919050565b600060208201905081810360008301526120cf81611d8f565b9050919050565b600060208201905081810360008301526120ef81611db2565b9050919050565b6000602082019050818103600083015261210f81611dd5565b9050919050565b6000602082019050818103600083015261212f81611df8565b9050919050565b6000602082019050818103600083015261214f81611e1b565b9050919050565b6000602082019050818103600083015261216f81611e3e565b9050919050565b6000602082019050818103600083015261218f81611e61565b9050919050565b600060208201905081810360008301526121af81611e84565b9050919050565b600060208201905081810360008301526121cf81611ea7565b9050919050565b600060208201905081810360008301526121ef81611eca565b9050919050565b6000602082019050818103600083015261220f81611eed565b9050919050565b6000602082019050818103600083015261222f81611f10565b9050919050565b6000602082019050818103600083015261224f81611f33565b9050919050565b6000602082019050818103600083015261226f81611f56565b9050919050565b6000602082019050818103600083015261228f81611f79565b9050919050565b600060208201905081810360008301526122af81611f9c565b9050919050565b60006020820190506122cb6000830184611fbf565b92915050565b60006122db6122ec565b90506122e7828261250d565b919050565b6000604051905090565b600067ffffffffffffffff82111561231157612310612645565b5b61231a82612674565b9050602081019050919050565b600081519050919050565b600081519050919050565b600082825260208201905092915050565b600082825260208201905092915050565b600081905092915050565b60006123758261248f565b91506123808361248f565b9250827fffffffffffffffffffffffffffffffffffffffffffffffffffffffffffffffff038211156123b5576123b46125b8565b5b828201905092915050565b60006123cb8261248f565b91506123d68361248f565b9250826123e6576123e56125e7565b5b828204905092915050565b60006123fc8261248f565b91506124078361248f565b92508282101561241a576124196125b8565b5b828203905092915050565b60006124308261246f565b9050919050565b60008115159050919050565b60007fffffffff0000000000000000000000000000000000000000000000000000000082169050919050565b600073ffffffffffffffffffffffffffffffffffffffff82169050919050565b6000819050919050565b82818337600083830152505050565b60005b838110156124c65780820151818401526020810190506124ab565b838111156124d5576000848401525b50505050565b600060028204905060018216806124f357607f821691505b6020821081141561250757612506612616565b5b50919050565b61251682612674565b810181811067ffffffffffffffff8211171561253557612534612645565b5b80604052505050565b60006125498261248f565b91507fffffffffffffffffffffffffffffffffffffffffffffffffffffffffffffffff82141561257c5761257b6125b8565b5b600182019050919050565b60006125928261248f565b915061259d8361248f565b9250826125ad576125ac6125e7565b5b828206905092915050565b7f4e487b7100000000000000000000000000000000000000000000000000000000600052601160045260246000fd5b7f4e487b7100000000000000000000000000000000000000000000000000000000600052601260045260246000fd5b7f4e487b7100000000000000000000000000000000000000000000000000000000600052602260045260246000fd5b7f4e487b7100000000000000000000000000000000000000000000000000000000600052604160045260246000fd5b6000601f19601f8301169050919050565b7f4552433732313a207472616e7366657220746f206e6f6e20455243373231526560008201527f63656976657220696d706c656d656e7465720000000000000000000000000000602082015250565b7f4552433732313a207472616e736665722066726f6d20696e636f72726563742060008201527f6f776e6572000000000000000000000000000000000000000000000000000000602082015250565b7f4552433732313a20746f6b656e20616c7265616479206d696e74656400000000600082015250565b7f4552433732313a207472616e7366657220746f20746865207a65726f2061646460008201527f7265737300000000000000000000000000000000000000000000000000000000602082015250565b7f4552433732313a20617070726f766520746f2063616c6c657200000000000000600082015250565b7f4552433732313a206f70657261746f7220717565727920666f72206e6f6e657860008201527f697374656e7420746f6b656e0000000000000000000000000000000000000000602082015250565b7f4552433732313a20617070726f76652063616c6c6572206973206e6f74206f7760008201527f6e6572206e6f7220617070726f76656420666f7220616c6c0000000000000000602082015250565b7f4552433732313a2062616c616e636520717565727920666f7220746865207a6560008201527f726f206164647265737300000000000000000000000000000000000000000000602082015250565b7f4552433732313a206f776e657220717565727920666f72206e6f6e657869737460008201527f656e7420746f6b656e0000000000000000000000000000000000000000000000602082015250565b7f45524337323155524953746f726167653a2055524920736574206f66206e6f6e60008201527f6578697374656e7420746f6b656e000000000000000000000000000000000000602082015250565b7f4552433732313a206d696e7420746f20746865207a65726f2061646472657373600082015250565b7f45524337323155524953746f726167653a2055524920717565727920666f722060008201527f6e6f6e6578697374656e7420746f6b656e000000000000000000000000000000602082015250565b7f4552433732313a20617070726f76656420717565727920666f72206e6f6e657860008201527f697374656e7420746f6b656e0000000000000000000000000000000000000000602082015250565b7f4552433732314d657461646174613a2055524920717565727920666f72206e6f60008201527f6e6578697374656e7420746f6b656e0000000000000000000000000000000000602082015250565b7f4e6f204d6f7265204e4654732063616e206265206d696e746564000000000000600082015250565b7f4552433732313a20617070726f76616c20746f2063757272656e74206f776e6560008201527f7200000000000000000000000000000000000000000000000000000000000000602082015250565b7f4552433732313a207472616e736665722063616c6c6572206973206e6f74206f60008201527f776e6572206e6f7220617070726f766564000000000000000000000000000000602082015250565b612b3581612425565b8114612b4057600080fd5b50565b612b4c81612437565b8114612b5757600080fd5b50565b612b6381612443565b8114612b6e57600080fd5b50565b612b7a8161248f565b8114612b8557600080fd5b5056fe68747470733a2f2f697066732e6d6f72616c69732e696f3a323035332f697066732f516d544246726d657865414862424d67724438314e5852726574444175394d486a356d6671573872446d357373662f6d657461646174612f322e6a736f6ea26469706673582212205db2cf70c41cb13e98cae985cc79db1b4bb07b0966abe8d00c7647888c0751ed64736f6c63430008040033",
  "linkReferences": {},
  "deployedLinkReferences": {}
}