{
  "_format": "hh-sol-artifact-1",
  "contractName": "MultiSend",
  "sourceName": "contracts/MultiSend.sol",
  "abi": [
    {
      "anonymous": false,
      "inputs": [
        {
          "indexed": false,
          "internalType": "uint256",
          "name": "total",
          "type": "uint256"
        },
        {
          "indexed": false,
          "internalType": "address",
          "name": "tokenAddress",
          "type": "address"
        }
      ],
      "name": "MultiSended",
      "type": "event"
    },
    {
      "anonymous": false,
      "inputs": [
        {
          "indexed": true,
          "internalType": "address",
          "name": "previousOwner",
          "type": "address"
        },
        {
          "indexed": true,
          "internalType": "address",
          "name": "newOwner",
          "type": "address"
        }
      ],
      "name": "OwnershipTransferred",
      "type": "event"
    },
    {
      "inputs": [
        {
          "internalType": "address",
          "name": "",
          "type": "address"
        },
        {
          "internalType": "address",
          "name": "",
          "type": "address"
        },
        {
          "internalType": "uint256",
          "name": "",
          "type": "uint256"
        },
        {
          "internalType": "bytes",
          "name": "",
          "type": "bytes"
        }
      ],
      "name": "onERC721Received",
      "outputs": [
        {
          "internalType": "bytes4",
          "name": "",
          "type": "bytes4"
        }
      ],
      "stateMutability": "nonpayable",
      "type": "function"
    },
    {
      "inputs": [],
      "name": "owner",
      "outputs": [
        {
          "internalType": "address",
          "name": "",
          "type": "address"
        }
      ],
      "stateMutability": "view",
      "type": "function"
    },
    {
      "inputs": [],
      "name": "renounceOwnership",
      "outputs": [],
      "stateMutability": "nonpayable",
      "type": "function"
    },
    {
      "inputs": [
        {
          "internalType": "address",
          "name": "_tokenAddress",
          "type": "address"
        },
        {
          "internalType": "address",
          "name": "creator",
          "type": "address"
        },
        {
          "internalType": "address[]",
          "name": "_recepients",
          "type": "address[]"
        },
        {
          "internalType": "uint256[]",
          "name": "_amounts",
          "type": "uint256[]"
        }
      ],
      "name": "sendToken",
      "outputs": [],
      "stateMutability": "nonpayable",
      "type": "function"
    },
    {
      "inputs": [
        {
          "internalType": "address",
          "name": "newOwner",
          "type": "address"
        }
      ],
      "name": "transferOwnership",
      "outputs": [],
      "stateMutability": "nonpayable",
      "type": "function"
    },
    {
      "inputs": [
        {
          "internalType": "address",
          "name": "from",
          "type": "address"
        },
        {
          "internalType": "address payable",
          "name": "to",
          "type": "address"
        },
        {
          "internalType": "address",
          "name": "token",
          "type": "address"
        },
        {
          "internalType": "uint256",
          "name": "amount",
          "type": "uint256"
        }
      ],
      "name": "transferTokens",
      "outputs": [],
      "stateMutability": "nonpayable",
      "type": "function"
    }
  ],
  "bytecode": "0x608060405234801561001057600080fd5b5061002d61002261003260201b60201c565b61003a60201b60201c565b6100fe565b600033905090565b60008060009054906101000a900473ffffffffffffffffffffffffffffffffffffffff169050816000806101000a81548173ffffffffffffffffffffffffffffffffffffffff021916908373ffffffffffffffffffffffffffffffffffffffff1602179055508173ffffffffffffffffffffffffffffffffffffffff168173ffffffffffffffffffffffffffffffffffffffff167f8be0079c531659141344cd1fd0a4f28419497f9722a3daafe3b4186f6b6457e060405160405180910390a35050565b610f378061010d6000396000f3fe608060405234801561001057600080fd5b50600436106100625760003560e01c8063150b7a021461006757806368155ec114610097578063715018a6146100b35780638da5cb5b146100bd578063ebed6969146100db578063f2fde38b146100f7575b600080fd5b610081600480360381019061007c91906108f8565b610113565b60405161008e9190610a8d565b60405180910390f35b6100b160048036038101906100ac9190610802565b610127565b005b6100bb61024a565b005b6100c56102d2565b6040516100d29190610a3b565b60405180910390f35b6100f560048036038101906100f09190610865565b6102fb565b005b610111600480360381019061010c91906107d9565b610442565b005b600063150b7a0260e01b9050949350505050565b600073ffffffffffffffffffffffffffffffffffffffff168273ffffffffffffffffffffffffffffffffffffffff16146101cf578173ffffffffffffffffffffffffffffffffffffffff166323b872dd8585846040518463ffffffff1660e01b815260040161019893929190610a56565b600060405180830381600087803b1580156101b257600080fd5b505af11580156101c6573d6000803e3d6000fd5b50505050610244565b8273ffffffffffffffffffffffffffffffffffffffff166108fc829081150290604051600060405180830381858888f19350505050610243576040517f08c379a000000000000000000000000000000000000000000000000000000000815260040161023a90610ae8565b60405180910390fd5b5b50505050565b61025261053a565b73ffffffffffffffffffffffffffffffffffffffff166102706102d2565b73ffffffffffffffffffffffffffffffffffffffff16146102c6576040517f08c379a00000000000000000000000000000000000000000000000000000000081526004016102bd90610b08565b60405180910390fd5b6102d06000610542565b565b60008060009054906101000a900473ffffffffffffffffffffffffffffffffffffffff16905090565b600082511161033f576040517f08c379a000000000000000000000000000000000000000000000000000000000815260040161033690610aa8565b60405180910390fd5b805182511461034d57600080fd5b60005b82518160ff161015610401576103ee84848360ff168151811061039c577f4e487b7100000000000000000000000000000000000000000000000000000000600052603260045260246000fd5b602002602001015187858560ff16815181106103e1577f4e487b7100000000000000000000000000000000000000000000000000000000600052603260045260246000fd5b6020026020010151610127565b80806103f990610d0d565b915050610350565b7f61f622a329a69372a43043391304622d3c455605ee7e10c0acd493fb0098bbcd835186604051610433929190610b28565b60405180910390a15050505050565b61044a61053a565b73ffffffffffffffffffffffffffffffffffffffff166104686102d2565b73ffffffffffffffffffffffffffffffffffffffff16146104be576040517f08c379a00000000000000000000000000000000000000000000000000000000081526004016104b590610b08565b60405180910390fd5b600073ffffffffffffffffffffffffffffffffffffffff168173ffffffffffffffffffffffffffffffffffffffff16141561052e576040517f08c379a000000000000000000000000000000000000000000000000000000000815260040161052590610ac8565b60405180910390fd5b61053781610542565b50565b600033905090565b60008060009054906101000a900473ffffffffffffffffffffffffffffffffffffffff169050816000806101000a81548173ffffffffffffffffffffffffffffffffffffffff021916908373ffffffffffffffffffffffffffffffffffffffff1602179055508173ffffffffffffffffffffffffffffffffffffffff168173ffffffffffffffffffffffffffffffffffffffff167f8be0079c531659141344cd1fd0a4f28419497f9722a3daafe3b4186f6b6457e060405160405180910390a35050565b600061061961061484610b76565b610b51565b9050808382526020820190508285602086028201111561063857600080fd5b60005b85811015610668578161064e888261071c565b84526020840193506020830192505060018101905061063b565b5050509392505050565b600061068561068084610ba2565b610b51565b905080838252602082019050828560208602820111156106a457600080fd5b60005b858110156106d457816106ba88826107c4565b8452602084019350602083019250506001810190506106a7565b5050509392505050565b60006106f16106ec84610bce565b610b51565b90508281526020810184848401111561070957600080fd5b610714848285610ccd565b509392505050565b60008135905061072b81610ebc565b92915050565b60008135905061074081610ed3565b92915050565b600082601f83011261075757600080fd5b8135610767848260208601610606565b91505092915050565b600082601f83011261078157600080fd5b8135610791848260208601610672565b91505092915050565b600082601f8301126107ab57600080fd5b81356107bb8482602086016106de565b91505092915050565b6000813590506107d381610eea565b92915050565b6000602082840312156107eb57600080fd5b60006107f98482850161071c565b91505092915050565b6000806000806080858703121561081857600080fd5b60006108268782880161071c565b945050602061083787828801610731565b93505060406108488782880161071c565b9250506060610859878288016107c4565b91505092959194509250565b6000806000806080858703121561087b57600080fd5b60006108898782880161071c565b945050602061089a8782880161071c565b935050604085013567ffffffffffffffff8111156108b757600080fd5b6108c387828801610746565b925050606085013567ffffffffffffffff8111156108e057600080fd5b6108ec87828801610770565b91505092959194509250565b6000806000806080858703121561090e57600080fd5b600061091c8782880161071c565b945050602061092d8782880161071c565b935050604061093e878288016107c4565b925050606085013567ffffffffffffffff81111561095b57600080fd5b6109678782880161079a565b91505092959194509250565b61097c81610c97565b82525050565b61098b81610c10565b82525050565b61099a81610c34565b82525050565b60006109ad602483610bff565b91506109b882610da6565b604082019050919050565b60006109d0602683610bff565b91506109db82610df5565b604082019050919050565b60006109f3602283610bff565b91506109fe82610e44565b604082019050919050565b6000610a16602083610bff565b9150610a2182610e93565b602082019050919050565b610a3581610c80565b82525050565b6000602082019050610a506000830184610982565b92915050565b6000606082019050610a6b6000830186610982565b610a786020830185610973565b610a856040830184610a2c565b949350505050565b6000602082019050610aa26000830184610991565b92915050565b60006020820190508181036000830152610ac1816109a0565b9050919050565b60006020820190508181036000830152610ae1816109c3565b9050919050565b60006020820190508181036000830152610b01816109e6565b9050919050565b60006020820190508181036000830152610b2181610a09565b9050919050565b6000604082019050610b3d6000830185610a2c565b610b4a6020830184610982565b9392505050565b6000610b5b610b6c565b9050610b678282610cdc565b919050565b6000604051905090565b600067ffffffffffffffff821115610b9157610b90610d66565b5b602082029050602081019050919050565b600067ffffffffffffffff821115610bbd57610bbc610d66565b5b602082029050602081019050919050565b600067ffffffffffffffff821115610be957610be8610d66565b5b610bf282610d95565b9050602081019050919050565b600082825260208201905092915050565b6000610c1b82610c60565b9050919050565b6000610c2d82610c60565b9050919050565b60007fffffffff0000000000000000000000000000000000000000000000000000000082169050919050565b600073ffffffffffffffffffffffffffffffffffffffff82169050919050565b6000819050919050565b600060ff82169050919050565b6000610ca282610ca9565b9050919050565b6000610cb482610cbb565b9050919050565b6000610cc682610c60565b9050919050565b82818337600083830152505050565b610ce582610d95565b810181811067ffffffffffffffff82111715610d0457610d03610d66565b5b80604052505050565b6000610d1882610c8a565b915060ff821415610d2c57610d2b610d37565b5b600182019050919050565b7f4e487b7100000000000000000000000000000000000000000000000000000000600052601160045260246000fd5b7f4e487b7100000000000000000000000000000000000000000000000000000000600052604160045260246000fd5b6000601f19601f8301169050919050565b7f5f726563657069656e7473206c656e677468206973206772656174657220746860008201527f616e203000000000000000000000000000000000000000000000000000000000602082015250565b7f4f776e61626c653a206e6577206f776e657220697320746865207a65726f206160008201527f6464726573730000000000000000000000000000000000000000000000000000602082015250565b7f5472616e73666572206f662045544820746f207265636569766572206661696c60008201527f6564000000000000000000000000000000000000000000000000000000000000602082015250565b7f4f776e61626c653a2063616c6c6572206973206e6f7420746865206f776e6572600082015250565b610ec581610c10565b8114610ed057600080fd5b50565b610edc81610c22565b8114610ee757600080fd5b50565b610ef381610c80565b8114610efe57600080fd5b5056fea2646970667358221220f43a5fe84849a9bfb0194bbcfcbc897ad2ea6b2250664629fd2adeb4adc6809b64736f6c63430008040033",
  "linkReferences": {},
  "deployedLinkReferences": {}
}