{
  "_format": "hh-sol-artifact-1",
  "contractName": "BigBullGamersPosts",
  "sourceName": "contracts/SocialPost.sol",
  "abi": [
    {
      "anonymous": false,
      "inputs": [
        {
          "indexed": true,
          "internalType": "bytes32",
          "name": "contentId",
          "type": "bytes32"
        },
        {
          "indexed": false,
          "internalType": "string",
          "name": "contentUri",
          "type": "string"
        }
      ],
      "name": "AddContent",
      "type": "event"
    },
    {
      "anonymous": false,
      "inputs": [
        {
          "indexed": true,
          "internalType": "bytes32",
          "name": "contestId",
          "type": "bytes32"
        },
        {
          "indexed": true,
          "internalType": "address",
          "name": "contestOwner",
          "type": "address"
        },
        {
          "indexed": false,
          "internalType": "bytes32",
          "name": "contestDataId",
          "type": "bytes32"
        },
        {
          "indexed": true,
          "internalType": "uint256",
          "name": "tokenId",
          "type": "uint256"
        }
      ],
      "name": "CreateContest",
      "type": "event"
    },
    {
      "anonymous": false,
      "inputs": [
        {
          "indexed": true,
          "internalType": "bytes32",
          "name": "postId",
          "type": "bytes32"
        },
        {
          "indexed": true,
          "internalType": "address",
          "name": "postOwner",
          "type": "address"
        },
        {
          "indexed": false,
          "internalType": "bytes32",
          "name": "contentId",
          "type": "bytes32"
        },
        {
          "indexed": true,
          "internalType": "uint256",
          "name": "tokenId",
          "type": "uint256"
        }
      ],
      "name": "CreatePost",
      "type": "event"
    },
    {
      "inputs": [
        {
          "internalType": "string",
          "name": "_contestUri",
          "type": "string"
        },
        {
          "internalType": "uint256",
          "name": "tokenId",
          "type": "uint256"
        }
      ],
      "name": "createContest",
      "outputs": [],
      "stateMutability": "nonpayable",
      "type": "function"
    },
    {
      "inputs": [
        {
          "internalType": "string",
          "name": "_contentUri",
          "type": "string"
        },
        {
          "internalType": "uint256",
          "name": "tokenId",
          "type": "uint256"
        }
      ],
      "name": "createPost",
      "outputs": [],
      "stateMutability": "nonpayable",
      "type": "function"
    },
    {
      "inputs": [
        {
          "internalType": "bytes32",
          "name": "_contentId",
          "type": "bytes32"
        }
      ],
      "name": "getContent",
      "outputs": [
        {
          "internalType": "string",
          "name": "",
          "type": "string"
        }
      ],
      "stateMutability": "view",
      "type": "function"
    },
    {
      "inputs": [
        {
          "internalType": "bytes32",
          "name": "_contestId",
          "type": "bytes32"
        }
      ],
      "name": "getContest",
      "outputs": [
        {
          "internalType": "address",
          "name": "",
          "type": "address"
        },
        {
          "internalType": "bytes32",
          "name": "",
          "type": "bytes32"
        },
        {
          "internalType": "uint256",
          "name": "",
          "type": "uint256"
        }
      ],
      "stateMutability": "view",
      "type": "function"
    },
    {
      "inputs": [
        {
          "internalType": "bytes32",
          "name": "_postId",
          "type": "bytes32"
        }
      ],
      "name": "getPost",
      "outputs": [
        {
          "internalType": "address",
          "name": "",
          "type": "address"
        },
        {
          "internalType": "bytes32",
          "name": "",
          "type": "bytes32"
        },
        {
          "internalType": "uint256",
          "name": "",
          "type": "uint256"
        }
      ],
      "stateMutability": "view",
      "type": "function"
    }
  ],
  "bytecode": "0x608060405234801561001057600080fd5b50610ad4806100206000396000f3fe608060405234801561001057600080fd5b50600436106100575760003560e01c80631252cb481461005c5780631e745e61146100785780635cc150011461009457806393e43bbe146100c4578063f22d36a2146100f6575b600080fd5b61007660048036038101906100719190610742565b610128565b005b610092600480360381019061008d9190610742565b6102cc565b005b6100ae60048036038101906100a99190610719565b610470565b6040516100bb91906108fd565b60405180910390f35b6100de60048036038101906100d99190610719565b610514565b6040516100ed93929190610887565b60405180910390f35b610110600480360381019061010b9190610719565b61058b565b60405161011f93929190610887565b60405180910390f35b60003390506000829050600085856040516020016101479291906108d9565b6040516020818303038152906040528051906020012090506000838260405160200161017492919061085b565b604051602081830303815290604052805190602001209050868660008085815260200190815260200160002091906101ad929190610602565b50836001600083815260200190815260200160002060000160006101000a81548173ffffffffffffffffffffffffffffffffffffffff021916908373ffffffffffffffffffffffffffffffffffffffff160217905550816001600083815260200190815260200160002060010181905550826001600083815260200190815260200160002060020181905550817f543b9703d49f05c4509874240ee68b3d589b7969873ae73426f51e900ee3f3b1888860405161026b9291906108d9565b60405180910390a2828473ffffffffffffffffffffffffffffffffffffffff16827ff032a759ce58a8758abee062c19d10ea701d4c962c9fd892089417c5728c25d5856040516102bb91906108be565b60405180910390a450505050505050565b60003390506000829050600085856040516020016102eb9291906108d9565b6040516020818303038152906040528051906020012090506000838260405160200161031892919061085b565b60405160208183030381529060405280519060200120905086866000808581526020019081526020016000209190610351929190610602565b50836002600083815260200190815260200160002060000160006101000a81548173ffffffffffffffffffffffffffffffffffffffff021916908373ffffffffffffffffffffffffffffffffffffffff160217905550816002600083815260200190815260200160002060010181905550826002600083815260200190815260200160002060020181905550817f543b9703d49f05c4509874240ee68b3d589b7969873ae73426f51e900ee3f3b1888860405161040f9291906108d9565b60405180910390a2828473ffffffffffffffffffffffffffffffffffffffff16827fb803ca90b1be3ecb3aea45429d99af202144bb65ef4d06c10a39b91b5f30346a8560405161045f91906108be565b60405180910390a450505050505050565b6060600080838152602001908152602001600020805461048f906109c3565b80601f01602080910402602001604051908101604052809291908181526020018280546104bb906109c3565b80156105085780601f106104dd57610100808354040283529160200191610508565b820191906000526020600020905b8154815290600101906020018083116104eb57829003601f168201915b50505050509050919050565b60008060006001600085815260200190815260200160002060000160009054906101000a900473ffffffffffffffffffffffffffffffffffffffff16600160008681526020019081526020016000206001015460016000878152602001908152602001600020600201549250925092509193909250565b60008060006001600085815260200190815260200160002060000160009054906101000a900473ffffffffffffffffffffffffffffffffffffffff16600160008681526020019081526020016000206001015460016000878152602001908152602001600020600201549250925092509193909250565b82805461060e906109c3565b90600052602060002090601f0160209004810192826106305760008555610677565b82601f1061064957803560ff1916838001178555610677565b82800160010185558215610677579182015b8281111561067657823582559160200191906001019061065b565b5b5090506106849190610688565b5090565b5b808211156106a1576000816000905550600101610689565b5090565b6000813590506106b481610a70565b92915050565b60008083601f8401126106cc57600080fd5b8235905067ffffffffffffffff8111156106e557600080fd5b6020830191508360018202830111156106fd57600080fd5b9250929050565b60008135905061071381610a87565b92915050565b60006020828403121561072b57600080fd5b6000610739848285016106a5565b91505092915050565b60008060006040848603121561075757600080fd5b600084013567ffffffffffffffff81111561077157600080fd5b61077d868287016106ba565b9350935050602061079086828701610704565b9150509250925092565b6107a38161093b565b82525050565b6107ba6107b58261093b565b6109f5565b82525050565b6107c98161094d565b82525050565b6107e06107db8261094d565b610a07565b82525050565b60006107f2838561092a565b93506107ff838584610981565b61080883610a52565b840190509392505050565b600061081e8261091f565b610828818561092a565b9350610838818560208601610990565b61084181610a52565b840191505092915050565b61085581610977565b82525050565b600061086782856107a9565b60148201915061087782846107cf565b6020820191508190509392505050565b600060608201905061089c600083018661079a565b6108a960208301856107c0565b6108b6604083018461084c565b949350505050565b60006020820190506108d360008301846107c0565b92915050565b600060208201905081810360008301526108f48184866107e6565b90509392505050565b600060208201905081810360008301526109178184610813565b905092915050565b600081519050919050565b600082825260208201905092915050565b600061094682610957565b9050919050565b6000819050919050565b600073ffffffffffffffffffffffffffffffffffffffff82169050919050565b6000819050919050565b82818337600083830152505050565b60005b838110156109ae578082015181840152602081019050610993565b838111156109bd576000848401525b50505050565b600060028204905060018216806109db57607f821691505b602082108114156109ef576109ee610a23565b5b50919050565b6000610a0082610a11565b9050919050565b6000819050919050565b6000610a1c82610a63565b9050919050565b7f4e487b7100000000000000000000000000000000000000000000000000000000600052602260045260246000fd5b6000601f19601f8301169050919050565b60008160601b9050919050565b610a798161094d565b8114610a8457600080fd5b50565b610a9081610977565b8114610a9b57600080fd5b5056fea26469706673582212203ca9f7d170d6423daac5e8e53beaf34ac5ca9994af89f0a02ea532e9eb542aa464736f6c63430008040033",
  "linkReferences": {},
  "deployedLinkReferences": {}
}