{
  "_format": "hh-sol-artifact-1",
  "contractName": "RandomNumberGenerator",
  "sourceName": "contracts/RandomNumberGenerator.sol",
  "abi": [
    {
      "inputs": [
        {
          "internalType": "address",
          "name": "VRFCoordinator",
          "type": "address"
        },
        {
          "internalType": "address",
          "name": "LINKToken",
          "type": "address"
        },
        {
          "internalType": "bytes32",
          "name": "KeyHash",
          "type": "bytes32"
        }
      ],
      "stateMutability": "nonpayable",
      "type": "constructor"
    },
    {
      "inputs": [],
      "name": "getRandom",
      "outputs": [
        {
          "internalType": "uint256",
          "name": "",
          "type": "uint256"
        }
      ],
      "stateMutability": "view",
      "type": "function"
    },
    {
      "inputs": [
        {
          "internalType": "uint256",
          "name": "maxValue",
          "type": "uint256"
        }
      ],
      "name": "getRandomNumber",
      "outputs": [
        {
          "internalType": "bytes32",
          "name": "requestId",
          "type": "bytes32"
        }
      ],
      "stateMutability": "nonpayable",
      "type": "function"
    },
    {
      "inputs": [],
      "name": "maxRange",
      "outputs": [
        {
          "internalType": "uint256",
          "name": "",
          "type": "uint256"
        }
      ],
      "stateMutability": "view",
      "type": "function"
    },
    {
      "inputs": [],
      "name": "randomResult",
      "outputs": [
        {
          "internalType": "uint256",
          "name": "",
          "type": "uint256"
        }
      ],
      "stateMutability": "view",
      "type": "function"
    },
    {
      "inputs": [
        {
          "internalType": "bytes32",
          "name": "requestId",
          "type": "bytes32"
        },
        {
          "internalType": "uint256",
          "name": "randomness",
          "type": "uint256"
        }
      ],
      "name": "rawFulfillRandomness",
      "outputs": [],
      "stateMutability": "nonpayable",
      "type": "function"
    }
  ],
  "bytecode": "0x60c06040523480156200001157600080fd5b5060405162000cca38038062000cca8339818101604052810190620000379190620000f4565b82828173ffffffffffffffffffffffffffffffffffffffff1660a08173ffffffffffffffffffffffffffffffffffffffff1660601b815250508073ffffffffffffffffffffffffffffffffffffffff1660808173ffffffffffffffffffffffffffffffffffffffff1660601b81525050505080600181905550655af3107a4000600281905550505050620001bc565b600081519050620000d78162000188565b92915050565b600081519050620000ee81620001a2565b92915050565b6000806000606084860312156200010a57600080fd5b60006200011a86828701620000c6565b93505060206200012d86828701620000c6565b92505060406200014086828701620000dd565b9150509250925092565b6000620001578262000168565b9050919050565b6000819050919050565b600073ffffffffffffffffffffffffffffffffffffffff82169050919050565b62000193816200014a565b81146200019f57600080fd5b50565b620001ad816200015e565b8114620001b957600080fd5b50565b60805160601c60a05160601c610ad4620001f66000396000818161011001526103490152600081816101e0015261030d0152610ad46000f3fe608060405234801561001057600080fd5b50600436106100575760003560e01c806342619f661461005c57806389ce16cc1461007a57806394985ddd14610098578063aacc5a17146100b4578063b37217a4146100d2575b600080fd5b610064610102565b604051610071919061080a565b60405180910390f35b610082610108565b60405161008f919061080a565b60405180910390f35b6100b260048036038101906100ad9190610554565b61010e565b005b6100bc6101aa565b6040516100c9919061080a565b60405180910390f35b6100ec60048036038101906100e79190610590565b6101d2565b6040516100f99190610741565b60405180910390f35b60035481565b60045481565b7f000000000000000000000000000000000000000000000000000000000000000073ffffffffffffffffffffffffffffffffffffffff163373ffffffffffffffffffffffffffffffffffffffff161461019c576040517f08c379a0000000000000000000000000000000000000000000000000000000008152600401610193906107ea565b60405180910390fd5b6101a682826102dc565b5050565b60008060016004546003546101bf9190610941565b6101c99190610852565b90508091505090565b6000816004819055506002547f000000000000000000000000000000000000000000000000000000000000000073ffffffffffffffffffffffffffffffffffffffff166370a08231306040518263ffffffff1660e01b815260040161023791906106e8565b60206040518083038186803b15801561024f57600080fd5b505afa158015610263573d6000803e3d6000fd5b505050506040513d601f19601f8201168201806040525081019061028791906105b9565b116102c7576040517f08c379a00000000000000000000000000000000000000000000000000000000081526004016102be906107ca565b60405180910390fd5b6102d5600154600254610309565b9050919050565b60008290508290506001600454836102f49190610941565b6102fe9190610852565b600381905550505050565b60007f000000000000000000000000000000000000000000000000000000000000000073ffffffffffffffffffffffffffffffffffffffff16634000aea07f00000000000000000000000000000000000000000000000000000000000000008486600060405160200161037d92919061075c565b6040516020818303038152906040526040518463ffffffff1660e01b81526004016103aa93929190610703565b602060405180830381600087803b1580156103c457600080fd5b505af11580156103d8573d6000803e3d6000fd5b505050506040513d601f19601f820116820180604052508101906103fc919061052b565b50600061041e8460003060008089815260200190815260200160002054610468565b905060016000808681526020019081526020016000205461043f9190610852565b6000808681526020019081526020016000208190555061045f84826104a4565b91505092915050565b6000848484846040516020016104819493929190610785565b6040516020818303038152906040528051906020012060001c9050949350505050565b600082826040516020016104b99291906106bc565b60405160208183030381529060405280519060200120905092915050565b6000815190506104e681610a59565b92915050565b6000813590506104fb81610a70565b92915050565b60008135905061051081610a87565b92915050565b60008151905061052581610a87565b92915050565b60006020828403121561053d57600080fd5b600061054b848285016104d7565b91505092915050565b6000806040838503121561056757600080fd5b6000610575858286016104ec565b925050602061058685828601610501565b9150509250929050565b6000602082840312156105a257600080fd5b60006105b084828501610501565b91505092915050565b6000602082840312156105cb57600080fd5b60006105d984828501610516565b91505092915050565b6105eb816108a8565b82525050565b6105fa816108c6565b82525050565b61061161060c826108c6565b61092d565b82525050565b600061062282610825565b61062c8185610830565b935061063c8185602086016108fa565b610645816109d0565b840191505092915050565b600061065d602b83610841565b9150610668826109e1565b604082019050919050565b6000610680601f83610841565b915061068b82610a30565b602082019050919050565b61069f816108f0565b82525050565b6106b66106b1826108f0565b610937565b82525050565b60006106c88285610600565b6020820191506106d882846106a5565b6020820191508190509392505050565b60006020820190506106fd60008301846105e2565b92915050565b600060608201905061071860008301866105e2565b6107256020830185610696565b81810360408301526107378184610617565b9050949350505050565b600060208201905061075660008301846105f1565b92915050565b600060408201905061077160008301856105f1565b61077e6020830184610696565b9392505050565b600060808201905061079a60008301876105f1565b6107a76020830186610696565b6107b460408301856105e2565b6107c16060830184610696565b95945050505050565b600060208201905081810360008301526107e381610650565b9050919050565b6000602082019050818103600083015261080381610673565b9050919050565b600060208201905061081f6000830184610696565b92915050565b600081519050919050565b600082825260208201905092915050565b600082825260208201905092915050565b600061085d826108f0565b9150610868836108f0565b9250827fffffffffffffffffffffffffffffffffffffffffffffffffffffffffffffffff0382111561089d5761089c610972565b5b828201905092915050565b60006108b3826108d0565b9050919050565b60008115159050919050565b6000819050919050565b600073ffffffffffffffffffffffffffffffffffffffff82169050919050565b6000819050919050565b60005b838110156109185780820151818401526020810190506108fd565b83811115610927576000848401525b50505050565b6000819050919050565b6000819050919050565b600061094c826108f0565b9150610957836108f0565b925082610967576109666109a1565b5b828206905092915050565b7f4e487b7100000000000000000000000000000000000000000000000000000000600052601160045260246000fd5b7f4e487b7100000000000000000000000000000000000000000000000000000000600052601260045260246000fd5b6000601f19601f8301169050919050565b7f4e6f7420656e6f756768204c494e4b202d2066696c6c20636f6e74726163742060008201527f7769746820666175636574000000000000000000000000000000000000000000602082015250565b7f4f6e6c7920565246436f6f7264696e61746f722063616e2066756c66696c6c00600082015250565b610a62816108ba565b8114610a6d57600080fd5b50565b610a79816108c6565b8114610a8457600080fd5b50565b610a90816108f0565b8114610a9b57600080fd5b5056fea26469706673582212200b19303747e43fa60a5213c8a7e4b5afc727e71b96aff1585d12fe0fd3702d8764736f6c63430008040033",
  "linkReferences": {},
  "deployedLinkReferences": {}
}